:040000000AEF1EF0F5
:08000800046ED8CF05F0E0CF33
:1000100006F00001E9CF0CF0EACF07F0E1CF08F0DD
:10002000E2CF09F0D9CF0AF0DACF0BF0F3CF12F01C
:10003000F4CF13F0FACF14F0F5CF15F0F6CF16F099
:10004000F7CF17F000C00EF001C00FF002C010F0A3
:1000500003C011F09DAA30EF00F09EBABAEF00F095
:100060000EC000F00FC001F010C002F011C003F08C
:100070000CC0E9FF07C0EAFF078E08C0E1FF09C016
:10008000E2FF0AC0D9FF0BC0DAFF12C0F3FF13C0B2
:10009000F4FF14C0FAFF15C0F5FF16C0F6FF17C035
:1000A000F7FF045006C0E0FF05C0D8FF1000F76A54
:1000B000BE0FF66E000EF7220900F55012001C7CF0
:1000C0001D7C1E7C1F7C087C097C0A7C0B7C0C7CC4
:1000D0000D7C0E7C0F7C007C017C027C037C147CFC
:1000E0001B7C1A7C197C187C137C127C117C107C84
:1000F000067C077C227C217C207C057C047CF76AC2
:100100000E0FF66E010EF7220900F5501200405353
:100110005358333200000401446B0501466B45918E
:100120000401456B0001000C050EEA6EC30EE96E7A
:10013000EF500EE0140E016E006A002EFED7012E65
:10014000FBD7BF0E006E002EFED700D0EF2EF2D7E9
:10015000000C8B9A949A640E0501C36F0001E4DFD2
:100160008B8A949A640E0501C36F0001DDDFF1D71D
:10017000E9EF00F09EAA2FD09EAAFED7AECFC2F51F
:1001800005010401443D01D01BD00501C2510D08F9
:10019000D8B4462BC2510A0814E0036A0401445142
:1001A000450FE96E030E0320EA6EC2C5EFFF442B34
:1001B000036A4451450FE96E030E0320EA6EEF6AAD
:1001C00005010401443D05D0050145810001A3DF7F
:1001D000C0D70001CFD79E9A30EF00F0405353585C
:1001E00033320000D89005016035200F636F646BD7
:1001F00061C565F562C566F564C5AAFF63C5A9FF5B
:1002000065C5A8FFA69CA69EA684F250006EF29E2D
:100210000F01550EA76EAA0EA76EA682A6B2FED734
:10022000A6940050F212010E05016325676F000EBF
:100230006421686F68C5AAFF67C5A9FF66C5A8FFE6
:10024000A69CA69EA684F250006EF29E0F01550E4B
:10025000A76EAA0EA76EA682A6B2FED7A6940050DD
:10026000F2120001000CD89005016035400F636F59
:10027000646B61C565F562C566F564C5AAFF63C5B3
:10028000A9FF65C5A8FFA69CA69EA684F250006E95
:10029000F29E0F01550EA76EAA0EA76EA682A6B2F9
:1002A000FED7A6940050F212010E05016325676F78
:1002B000000E6421686F68C5AAFF67C5A9FF66C5FF
:1002C000A8FFA69CA69EA684F250006EF29E0F0187
:1002D000550EA76EAA0EA76EA682A6B2FED7A6944A
:1002E0000050F2120001000CD89005016035600F3B
:1002F000636F646B61C565F562C566F564C5AAFF89
:1003000063C5A9FF65C5A8FFA69CA69EA684F2505A
:10031000006EF29E0F01550EA76EAA0EA76EA68262
:10032000A6B2FED7A6940050F212010E0501632575
:10033000676F000E6421686F68C5AAFF67C5A9FFD3
:1003400066C5A8FFA69CA69EA684F250006EF29EEB
:100350000F01550EA76EAA0EA76EA682A6B2FED7F3
:10036000A6940050F2120001000CD89005016035EF
:10037000800F636F646B61C565F562C566F564C522
:10038000AAFF63C5A9FF65C5A8FFA69CA69EA68473
:10039000F250006EF29E0F01550EA76EAA0EA76EC8
:1003A000A682A6B2FED7A6940050F212010E050155
:1003B0006325676F000E6421686F68C5AAFF67C573
:1003C000A9FF66C5A8FFA69CA69EA684F250006E53
:1003D000F29E0F01550EA76EAA0EA76EA682A6B2B8
:1003E000FED7A6940050F2120001000CAA6AA96A76
:1003F000010EA86EA69CA69EA684F250006EF29EE8
:100400000F01550EA76EAA0EA76EA682A6B2FED742
:10041000A6940050F21205015E6B5E511F0822E3A4
:100420005EC560F5626B616B0001DCDE5EC560F588
:100430000501626B616B000116DF5EC560F5030E9E
:100440000501626F200E616F00014EDF5EC560F531
:10045000080E0501626F980E616F000186DF0501CD
:100460005E2BDBD7000145EF02F0F2CF5EF5F29E86
:10047000AA6AA96AA69CA69EA680A85005015EBF8E
:10048000F28EFF0803E10001B1D70501000104EF7E
:1004900003F0050178517A03F3CF01F0F4CF00F0B7
:1004A0007B03F350002679517A03F3500020026E4B
:1004B0000001000CD89005016035400F616F626B40
:1004C000F2CF63F5F29E62C5AAFF61C5A9FFA69CA3
:1004D000A69EA680A85063BFF28E646F010E6125B0
:1004E000656F000E6221666FF2CF67F5F29E66C5FA
:1004F000AAFF65C5A9FFA69CA69EA680A85067BFB7
:10050000F28E666F796B66C578F5010E7B6F7A6B3C
:100510000001BFDF02C003F0015005016425016E38
:10052000000E03220150016E0350026E0001A2EF83
:1005300003F0D89005016035200F616F626BF2CF38
:1005400063F5F29E62C5AAFF61C5A9FFA69CA69E9F
:10055000A680A85063BFF28E646F010E6125656F9F
:10056000000E6221666FF2CF67F5F29E66C5AAFFA4
:1005700065C5A9FFA69CA69EA680A85067BFF28E5F
:10058000666F796B66C578F5010E7B6F7A6B00013B
:1005900080DF02C003F0015005016425016E000EEA
:1005A00003220150016E0350026E0001CAEF03F0F6
:1005B000000E7E6EC198C19A7F50E00B7F6EC050D6
:1005C000C00BC06EC09EC280C69A949A94889496BE
:1005D000010EC66E000EC76ED190830ED56EB50E9D
:1005E000CD6E000ECA6E000ECB6EB16A9484BD6AE9
:1005F000B76AB66A010EB96E799A7998040E7A6E66
:100600007B6E8B8A949A31D705015D6B5D511F0813
:10061000D8A0DFD1796B5DC578F57B6B180E7A6F4A
:10062000000137DF200E05010124E96E000E0220D3
:10063000EA6EEF6A796B5DC578F57B6B180E7A6FA1
:10064000000127DF01C05EF5010E05010124016EE6
:10065000000E0220036E0150200FE96E000E0320F1
:10066000EA6E050EEC6EED52DC0EEF6E796B5DC539
:1006700078F57B6B180E7A6F00010BDF01C05EF519
:10068000030E05010124016E000E0220036E0150CD
:10069000200FE96E000E0320EA6E050EEC6EED529F
:1006A000DC0EEF6E796B5DC578F57B6B180E7A6F9B
:1006B0000001EFDE01C05EF5050E05010124016EAB
:1006C000000E0220036E0150200FE96E000E032081
:1006D000EA6EEC6AED52EF6A796B5DC578F57B6B7B
:1006E000180E7A6F0001D5DE01C05EF5070E050118
:1006F0000124016E000E0220036E0150200FE96EEE
:10070000000E0320EA6EEF6A796B5DC578F57B6BAE
:10071000180E7A6F0001BDDE01C05EF5080E0501FE
:100720000124016E000E0220036E0150200F016EA5
:10073000000E032201C05EF503C05FF55DC560F5E4
:100740000001B8D65FC5EAFF5EC5E9FF02C0ECFF55
:10075000ED5201C0EFFF0501796B5DC578F57B6B4C
:10076000180E7A6F000195DE01C05EF50A0E0501D4
:100770000124016E000E0220036E0150200F016E55
:10078000000E032201C05EF503C05FF55DC560F594
:100790000001CFD65FC5EAFF5EC5E9FF02C0ECFFEE
:1007A000ED5201C0EFFF0501796B5DC578F57B6BFC
:1007B000180E7A6F00016DDE01C05EF50C0E0501AA
:1007C0000124016E000E0220036E0150200FE96E1D
:1007D000000E0320EA6E030EEC6EED52200EEF6E5B
:1007E000796B5DC578F57B6B180E7A6F000151DE71
:1007F00001C05EF50E0E05010124016E000E0220FF
:10080000036E0150200FE96E000E0320EA6E080E01
:10081000EC6EED52980EEF6E796B5DC578F57B6BE3
:10082000180E7A6F000135DE01C05EF5100E05016D
:100830000124016E000E0220036E0150200FE96EAC
:10084000000E0320EA6EEF6A796B5DC578F57B6B6D
:10085000180E7A6F00011DDE01C05EF5110E050154
:100860000124016E000E0220036E0150200FE96E7C
:10087000000E0320EA6EEF6A796B5DC578F57B6B3D
:10088000180E7A6F000105DE01C05EF5120E05013B
:100890000124016E000E0220036E0150200FE96E4C
:1008A000000E0320EA6EEF6A796B5DC578F57B6B0D
:1008B000180E7A6F0001EDDD01C05EF5130E050123
:1008C0000124016E000E0220036E0150200FE96E1C
:1008D000000E0320EA6EEF6A796B5DC578F57B6BDD
:1008E000180E7A6F0001D5DD01C05EF5140E05010A
:1008F0000124016E000E0220036E0150200FE96EEC
:10090000000E0320EA6EEF6A796B5DC578F57B6BAC
:10091000180E7A6F0001BDDD01C05EF5150E0501F0
:100920000124016E000E0220036E0150200FE96EBB
:10093000000E0320EA6EEF6A796B5DC578F57B6B7C
:10094000180E7A6F0001A5DD01C05EF5160E0501D7
:100950000124016E000E0220036E0150200FE96E8B
:10096000000E0320EA6EEC6AED52EF6A796B5DC50A
:1009700078F57B6B180E7A6F00018BDD01C05EF598
:100980000A0E05010124016E000E0220036E0150C3
:10099000200FE96E000E0320EA6EECCF5FF5ED52FA
:1009A000EFCF5EF55E5302E15F5311E0796B5DC5F9
:1009B00078F57B6B180E7A6F00016BDD200E050158
:1009C0000124E96E000E0220EA6E010EEF6E5D2B2F
:1009D0001DD6010E0301436FB886400EAF6E030EA5
:1009E000B06EA60EAC6E00018BEC00F09D8AC00EBE
:1009F000F2122EEF1EF00501796B74C578F57B6B52
:100A0000180E7A6F000145DD01C075F5030E050172
:100A10000124016E000E0220036E0150200FE96ECA
:100A2000000E0320EA6EECCF76F5ED52EFCF75F5B0
:100A3000796B74C578F57B6B180E7A6F000129DD30
:100A400002C078F501C077F50C0E05010124016E96
:100A5000000E0220036E0150200FE96E000E0320ED
:100A6000EA6EECCF03F0ED52EFCF01F07651035C6C
:100A700043E303E10150755D3FE2796B74C578F59E
:100A80007B6B180E7A6F000104DD01C075F5030E53
:100A900005010124016E000E0220036E0150200F9B
:100AA000016E000E032201C075F503C076F5796B67
:100AB00074C578F57B6B180E7A6F0001EADC01C013
:100AC00077F50C0E05010124016E000E0220036E65
:100AD0000150200FE96E000E0320EA6EECCF03F008
:100AE000ED52EFCF77F576C5EAFF75C5E9FF03C094
:100AF000ECFFED5277C5EFFF796B74C578F57B6B32
:100B0000180E7A6F0001C5DC01C075F5030E0501F2
:100B10000124016E000E0220036E0150200FE96EC9
:100B2000000E0320EA6EECCF76F5ED52EFCF75F5AF
:100B3000796B74C578F57B6B180E7A6F0001A9DCB0
:100B400002C078F501C077F50E0E05010124016E93
:100B5000000E0220036E0150200FE96E000E0320EC
:100B6000EA6EECCF03F0ED52EFCF01F00350765D6B
:100B700043E303E17551015C3FE2796B74C578F59D
:100B80007B6B180E7A6F000184DC01C075F5030ED3
:100B900005010124016E000E0220036E0150200F9A
:100BA000016E000E032201C075F503C076F5796B66
:100BB00074C578F57B6B180E7A6F00016ADC01C092
:100BC00077F50E0E05010124016E000E0220036E62
:100BD0000150200FE96E000E0320EA6EECCF03F007
:100BE000ED52EFCF77F576C5EAFF75C5E9FF03C093
:100BF000ECFFED5277C5EFFF0001000C0501796BAA
:100C00005EC578F57B6B180E7A6F000142DC01C07F
:100C10005FF5050E05010124016E000E0220036E32
:100C20000150200FE96E000E0320EA6EECCF60F554
:100C3000ED52EFCF5FF55F5342E1605340E1796BD6
:100C40005EC578F57B6B180E7A6F000122DC01C05F
:100C50005FF5010E05010124016E000E0220036EF6
:100C60000150200F016E000E032201C05FF503C08A
:100C700060F5796B5EC578F57B6B180E7A6F0001B5
:100C800008DC01C061F5030E05010124016E000EB0
:100C90000220036E0150200FE96E000E0320EA6E61
:100CA000ECCF03F0ED52EFCF61F560C5EAFF5FC511
:100CB000E9FF03C0ECFFED5261C5EFFF53D2796B42
:100CC0005EC578F57B6B180E7A6F000149EC02F077
:100CD00001C05FF5010E05010124016E000E022026
:100CE000036E0150200FE96E000E0320EA6EECCF78
:100CF00060F5ED52EFCF5FF5796B5EC578F57B6BF4
:100D0000180E7A6F000149EC02F002C062F501C0D2
:100D100061F5030E05010124016E000E0220036E31
:100D20000150200FE96E000E0320EA6EECCF03F0B5
:100D3000ED52EFCF01F06051035CD8A0EAD004E19E
:100D400001505F5DD8B0E5D0796B5EC578F57B6BFF
:100D5000180E7A6F000149EC02F001C05FF5010E38
:100D600005010124016E000E0220036E0150200FC8
:100D7000016E000E032201C05FF503C060F5796BC0
:100D80005EC578F57B6B180E7A6F000149EC02F0B6
:100D900001C061F5010E05010124016E000E022063
:100DA000036E0150200FE96E000E0320EA6EECCFB7
:100DB00062F5ED52EFCF61F5796B5EC578F57B6B2F
:100DC000180E7A6F000149EC02F001C063F5050EC0
:100DD00005010124016E000E0220036E0150200F58
:100DE000E96E000E0320EA6EECCF03F0ED52EF50F7
:100DF0006125016E6251032260C5EAFF5FC5E9FF0C
:100E000003C0ECFFED5201C0EFFF796B5EC578F5D2
:100E10007B6B180E7A6F000149EC02F001C05FF5A0
:100E2000010E05010124016E000E0220036E015027
:100E3000200FE96E000E0320EA6EECCF60F5ED5254
:100E4000EFCF5FF5796B5EC578F57B6B180E7A6F27
:100E5000000149EC02F002C062F501C061F5030E29
:100E600005010124016E000E0220036E0150200FC7
:100E7000E96E000E0320EA6EECCF03F0ED52EFCFE7
:100E800001F00350605D45E303E15F51015C41E225
:100E9000796B5EC578F57B6B180E7A6F000149ECB3
:100EA00002F001C05FF5010E05010124016E000E84
:100EB0000220036E0150200F016E000E032201C0BC
:100EC0005FF503C060F5796B5EC578F57B6B180E36
:100ED0007A6F000149EC02F001C061F5030E0501D3
:100EE0000124016E000E0220036E0150200FE96EF6
:100EF000000E0320EA6EECCF03F0ED52EFCF61F568
:100F000060C5EAFF5FC5E9FF03C0ECFFED5261C5B4
:100F1000EFFF796B5EC578F57B6B180E7A6F000179
:100F200049EC02F001C05FF5010E05010124016EDC
:100F3000000E0220036E0150200FE96E000E032008
:100F4000EA6EECCF60F5ED52EFCF5FF5796B5EC5E1
:100F500078F57B6B180E7A6F000149EC02F002C045
:100F600062F501C061F5030E05010124016E000E5A
:100F70000220036E0150200FE96E000E0320EA6E7E
:100F8000ECCF03F0ED52EFCF01F00350605DD8A03D
:100F9000E9D004E15F51015CD8B0E4D0796B5EC563
:100FA00078F57B6B180E7A6F000149EC02F001C0F6
:100FB0005FF5010E05010124016E000E0220036E93
:100FC0000150200F016E000E032201C05FF503C027
:100FD00060F5796B5EC578F57B6B180E7A6F000152
:100FE00049EC02F001C061F5010E05010124016E1A
:100FF000000E0220036E0150200FE96E000E032048
:10100000EA6EECCF62F5ED52EFCF61F5796B5EC51C
:1010100078F57B6B180E7A6F000149EC02F001C085
:1010200063F5050E05010124016E000E0220036E1A
:101030000150200FE96E000E0320EA6EECCF03F0A2
:10104000ED52EF50615D006E0350625960C5EAFFDA
:101050005FC5E9FFEC6EED5200C0EFFF796B5EC536
:1010600078F57B6B180E7A6F000149EC02F001C035
:101070005FF5010E05010124016E000E0220036ED2
:101080000150200FE96E000E0320EA6EECCF60F5F0
:10109000ED52EFCF5FF5796B5EC578F57B6B180E7F
:1010A0007A6F000149EC02F002C062F501C061F5FF
:1010B000030E05010124016E000E0220036E015093
:1010C000200FE96E000E0320EA6EECCF03F0ED5224
:1010D000EFCF01F06051035C45E303E101505F5D38
:1010E00041E2796B5EC578F57B6B180E7A6F000173
:1010F00049EC02F001C05FF5010E05010124016E0B
:10110000000E0220036E0150200F016E000E03221C
:1011100001C05FF503C060F5796B5EC578F57B6B48
:10112000180E7A6F000149EC02F001C061F5030E60
:1011300005010124016E000E0220036E0150200FF4
:10114000E96E000E0320EA6EECCF03F0ED52EFCF14
:1011500061F560C5EAFF5FC5E9FF03C0ECFFED5232
:1011600061C5EFFF0001000C05015D6B5D511F08BB
:10117000D8A0B2D25DC574F500013DDC0501796BE4
:101180005DC578F57B6B180E7A6F000149EC02F0B3
:1011900002C05FF501C05EF5200E05010124E96E75
:1011A000000E0220EA6EEF2C46D05DC55EF5000110
:1011B00025DD0501796B5DC578F57B6B180E7A6FBF
:1011C000000149EC02F001C05EF5160E0501012494
:1011D000016E000E0220036E0150200F016E000E02
:1011E000032201C05EF503C05FF5796B5DC578F53C
:1011F0007B6B180E7A6F000149EC02F001C060F5BC
:10120000010E05010124016E000E0220036E015043
:10121000200FE96E000E0320EA6EECCF03F0ED52D2
:10122000EFCF60F55FC5EAFF5EC5E9FF03C0ECFFE5
:10123000ED5260C5EFFF796B5DC578F57B6B180EDD
:101240007A6F000149EC02F002C05FF501C05EF563
:10125000200E05010124E96E000E0220EA6EEF5017
:1012600002085BE1796B5DC578F57B6B180E7A6FD0
:10127000000149EC02F001C05EF5160E05010124E3
:10128000016E000E0220036E0150200F016E000E51
:10129000032201C05EF503C05FF5796B5DC578F58B
:1012A0007B6B180E7A6F000149EC02F002C061F509
:1012B00001C060F5140E05010124016E000E02202C
:1012C000036E0150200FE96E000E0320EA6E796B69
:1012D000EFCF78F57B6B180E7A6F000149EC02F0C6
:1012E00001C060F5010E05010124016E000E02200F
:1012F000036E0150200FE96E000E0320EA6EECCF62
:1013000003F0ED52EFCF60F55FC5EAFF5EC5E9FF80
:1013100003C0ECFFED5260C5EFFF796B5DC578F55A
:101320007B6B180E7A6F000149EC02F002C05FF58A
:1013300001C05EF5200E05010124E96E000E0220B9
:10134000EA6EEF500308D8A40BD1796B5DC578F530
:101350007B6B180E7A6F000149EC02F002C05FF55A
:1013600001C05EF5140E05010124016E000E02207D
:10137000036E0150200FE96E000E0320EA6E796BB8
:10138000EFCF78F57B6B180E7A6F000149EC02F015
:1013900001C05EF5010E05010124016E000E022060
:1013A000036E0150200FE96E000E0320EA6EECCFB1
:1013B0005FF5ED52EFCF5EF55F5104086DE2FF0A75
:1013C00003E15E51DC0868E2796B5DC578F57B6B03
:1013D000180E7A6F000149EC02F001C05EF5160E9E
:1013E00005010124016E000E0220036E0150200F42
:1013F000016E000E032201C05EF503C05FF5796B3C
:101400005DC578F57B6B180E7A6F000149EC02F030
:1014100002C061F501C060F5140E05010124016EE2
:10142000000E0220036E0150200FE96E000E032013
:10143000EA6E796BEFCF78F57B6B180E7A6F00014F
:1014400049EC02F001C060F5010E05010124016EB6
:10145000000E0220036E0150200FE96E000E0320E3
:10146000EA6EECCF61F5ED52EFCF60F5DC0E605D1A
:10147000006E050E6159036E0050FF0ADD0F006E0D
:10148000050E03565FC5EAFF5EC5E9FF03C0ECFF2A
:10149000ED5200C0EFFF64D0796B5DC578F57B6BD2
:1014A000180E7A6F000149EC02F001C05EF5160ECD
:1014B00005010124016E000E0220036E0150200F71
:1014C000016E000E032201C05EF503C05FF5796B6B
:1014D0005DC578F57B6B180E7A6F000149EC02F060
:1014E00002C061F501C060F5140E05010124016E12
:1014F000000E0220036E0150200FE96E000E032043
:10150000EA6E796BEFCF78F57B6B180E7A6F00017E
:1015100049EC02F001C060F5010E05010124016EE5
:10152000000E0220036E0150200FE96E000E032012
:10153000EA6EECCF03F0ED52EF50FF0ADD0F606F63
:10154000050E0354616FDC0E6025016E050E6121EE
:101550005FC5EAFF5EC5E9FFEC6EED5201C0EFFF2B
:10156000796B5DC578F57B6B180E7A6F000149ECDD
:1015700002F002C05FF501C05EF5200E05010124F6
:10158000E96E000E0220EA6EEF500408D8A4A2D043
:10159000796B5DC578F57B6B180E7A6F000149ECAD
:1015A00002F001C05EF5030E05010124016E000E7C
:1015B0000220036E0150200F016E000E032201C0B5
:1015C0005EF503C05FF5796B5DC578F57B6B180E32
:1015D0007A6F000149EC02F002C061F501C060F5CC
:1015E000140E05010124016E000E0220036E01504D
:1015F000200FE96E000E0320EA6E796BEFCF78F5CD
:101600007B6B180E7A6F000149EC02F001C060F5A7
:10161000010E05010124016E000E0220036E01502F
:10162000200FE96E000E0320EA6EECCF03F0ED52BE
:10163000EFCF60F55FC5EAFF5EC5E9FF03C0ECFFD1
:10164000ED5260C5EFFF5DC55EF50001FEEC05F0F3
:101650000501796B5DC578F57B6B180E7A6F00011B
:1016600049EC02F001C05EF5160E05010124016E81
:10167000000E0220036E0150200F016E000E0322A7
:1016800001C05EF503C05FF5796B5DC578F57B6BD6
:10169000180E7A6F000149EC02F001C060F5010EEE
:1016A00005010124016E000E0220036E0150200F7F
:1016B000E96E000E0320EA6EECCF03F0ED52EFCF9F
:1016C00060F55FC5EAFF5EC5E9FF03C0ECFFED52C0
:1016D00060C5EFFF5D2B4AD5796B5DC578F57B6BF7
:1016E000180E7A6F000149EC02F001C05EF5160E8B
:1016F00005010124016E000E0220036E0150200F2F
:10170000016E000E032201C05EF503C05FF5796B28
:101710005DC578F57B6B180E7A6F000149EC02F01D
:1017200001C060F5160E05010124016E000E0220B5
:10173000036E0150200FE96E000E0320EA6EECCF1D
:1017400061F5ED52EFCF60F5796B5DC578F57B6B98
:10175000180E7A6F000149EC02F001C062F5080E24
:1017600005010124016E000E0220036E0150200FBE
:10177000E96E000E0320EA6EECCF03F0ED52EF505D
:101780006025016E615103225FC5EAFF5EC5E9FF76
:1017900003C0ECFFED5201C0EFFF000134EF1EF07B
:1017A00005015D6B5D511F080BE3036A5D51200F5E
:1017B000E96E030E0320EA6E5DC5EFFF5D2BF2D7E5
:1017C000010E5F6F5F2D88D05F6B5D6B5D511E08F2
:1017D000D8A081D0036A5D51200FE96E030E03206B
:1017E000EA6E796BEFCF78F57B6B180E7A6F00019C
:1017F00049EC02F001C060F5160E05010124016EEE
:10180000000E0220036E0150200FE96E000E03202F
:10181000EA6EECCF61F5ED52EFCF60F5010E5D257C
:10182000036A200FE96E030E0320EA6E796BEFCF97
:1018300078F57B6B180E7A6F000149EC02F002C05C
:1018400063F501C062F5160E05010124016E000E5C
:101850000220036E0150200FE96E000E0320EA6E95
:10186000ECCF03F0ED52EFCF01F00350615D31E3B7
:1018700003E16051015C2DE2036A5D51200FE96EC6
:10188000030E0320EA6EEFCF5EF5036A5D51200F71
:10189000016E030E032203C061F5010E5D25036A8C
:1018A000200FE96E030E0320EA6EEFCF62F561C5EB
:1018B000EAFF01C0E9FF62C5EFFF010E5D25036A83
:1018C000200FE96E030E0320EA6E5EC5EFFF010EE6
:1018D0005F6F5D2B7BD776D7000136EF1EF00501D9
:1018E0006351070B006E6331016E013201321F0E2E
:1018F000011601506525E96E000E6621EA6E016A47
:10190000012A002A01D00136002EFDD7645303E0DE
:101910000150EF1203D0011E0150EF160001000C20
:10192000D76AD66A5DC55FF505015F515E5D2CE340
:10193000036A5F51200FE96E030E0320EA6EEFCFBA
:1019400060F5D8906035036A000157EC00F009009B
:10195000F5CF03F00501616F03C062F5636F010EFF
:10196000646F0F0E666F890E656F0001B8DF61C589
:1019700063F50501646B0F0E666F920E656F0001D3
:10198000AEDF05015F2BD1D75DC55FF55F515E5DB1
:1019900057E3036A5F51200FE96E030E0320EA6EDE
:1019A000EFCF60F5D650D7CF03F0616FD7CF62F598
:1019B000796B60C578F57B6B180E7A6F000149EC86
:1019C00002F002C064F501C063F5160E05010124A2
:1019D000016E000E0220036E0150200FE96E000E12
:1019E0000320EA6EECCF03F0ED52EFCF01F062512D
:1019F000035C04E3D7E10150615DD4E3D890603526
:101A0000036A000157EC00F00900F5CF03F005016F
:101A1000616F03C062F5636F646B0F0E666F890EB2
:101A2000656F00015CDF61C563F50501646B0F0E36
:101A3000666F920E656F000152DF05015F2BA6D71E
:101A40000001000C05015D6B030E5E6F000168DF95
:101A5000040E05015D6F070E5E6F000161DF080E69
:101A600005015D6F0B0E5E6F00015ADF0C0E050164
:101A70005D6F0F0E5E6F000153DF100E05015D6F8D
:101A8000130E5E6F00014CDF140E05015D6F170E23
:101A90005E6F000145DF180E05015D6F1B0E5E6F66
:101AA00000013EDF1C0E05015D6F1F0E5E6F000121
:101AB00037DF47EF1EF005015D91465301E05D8180
:101AC000000E5DB1010E016E00018AEF1CF00501F0
:101AD00069910401445302E005016981000E05018A
:101AE00069B1010E016E000177EF0DF0F0D70152E0
:101AF000FDE045C367F5050167510D08D8B44607F9
:101B0000686B040144510501685D1AE2036A68517B
:101B1000450F016E030E032203C06AF5010E68250E
:101B2000036A450FE96E030E0320EA6EEFCF6BF5F3
:101B30006AC5EAFF01C0E9FF6BC5EFFF682BE1D77B
:101B400004014407050167C501F00001B2EF0DF083
:101B500005016691446B0401456B050166B122D015
:101B60000001C4D701C065F5050165510D0801E10B
:101B700066816551190815E2443D01D012D0036A0F
:101B80004451450FE96E040E0320EA6E65C5EFFF70
:101B9000442B036A4451450FE96E040E0320EA6E9C
:101BA000EF6ADCD70001E5EF1BF00501666B036A05
:101BB0005B51450FE96E040E0320EA6EEFCF65F529
:101BC0006551200820E065531EE0036A6651470F07
:101BD000E96E050E0320EA6E65C5EFFF010E66256E
:101BE000036A470FE96E050E0320EA6EEF6A662B63
:101BF0005B2B036A5B51450FE96E040E0320EA6E0E
:101C0000EFCF65F5DDD75B2B655302E1010E5C6F0D
:101C10000001000C050176C5E9FF77C5EAFFEFCFAB
:101C20007AF579C503F078C5E9FF79C5EAFFEF5089
:101C30007A5D15E177C503F076C5E9FF03C0EAFFD9
:101C4000EF5203E1000E016E1FD077C503F076510D
:101C5000762BD8B4772B782BD8B4792BDCD777C5F3
:101C600003F076C5E9FF77C5EAFFEFCF7AF579C5CE
:101C700003F078C5E9FF79C5EAFFEF507A5D02E22B
:101C8000FF0E01D0010E016E0001000CEF5210E0BA
:101C9000EACF66F5E9CF65F5EF509EA8FED7AD6EA9
:101CA00066C5EAFF65C5E9FFE92AD8B4EA2AEED796
:101CB000000C006A016A05016C51D8906DB10026D4
:101CC000003201326DB30026003201326DB50026BC
:101CD000003201326DB70026003201326DB90026A4
:101CE000003201326DBB0026003201326DBD00268C
:101CF000003201326DBF0026003201320001EFEFE9
:101D00000EF005016A6B686B0A0E696F676B6551AF
:101D1000661103E1000E016EC3D06A516A2B036A9B
:101D20006525E96E66510320EA6EEFCF6BF56B51C6
:101D30002D080DE1010E686F6A516A2B036A652553
:101D4000E96E66510320EA6EEFCF6BF50DD06B5153
:101D50002B080AE16A516A2B036A6525E96E665110
:101D60000320EA6EEFCF6BF56B512F08D8B090D0FF
:101D70006B513908D8A08CD06B51300821E1036A2F
:101D80006A516525E96E66510320EA6EEF507808C6
:101D90000AE0036A6A516525E96E66510320EA6E1E
:101DA000EF5058080DE1100E696F6A2B6A516A2BCB
:101DB000036A6525E96E66510320EA6EEFCF6BF585
:101DC00069510A081DE16B512F0819E26B5139085E
:101DD00016E30A0E6C6F67C56DF500016AD7300E09
:101DE00005016B5D0124676F6A516A2B036A6525E3
:101DF000E96E66510320EA6EEFCF6BF5E4D748D069
:101E00006951100845E16B51600806E26B517A0890
:101E100003E36B51DF0B01D06B516B6F6B512F08DC
:101E200003E26B51390806E26B51400831E26B5115
:101E300046082EE36B512F080CE26B51390809E379
:101E400067396C6FF00E6C17300E6B5D6C25676F29
:101E500009D067396C6FF00E6C17410E6B5D0A0F7D
:101E60006C25676F6A516A2B036A6525E96E6651B6
:101E70000320EA6EEFCF6BF56B51600806E26B5101
:101E80007A0803E36B51DF0B01D06B516B6FC6D740
:101E9000682D04D069510A0801E1676D67C501F03A
:101EA00000013DEF1CF00900F5520DE0F6CF65F59D
:101EB000F7CF66F5F5509EA8FED7AD6E65C5F6FF67
:101EC00066C5F7FFF0D748EF1CF005016851016ABD
:101ED000675D03E267C500F00CD0006A080E696F09
:101EE000673700366851005CD8B0006E0136692F44
:101EF000F7D70001000C015065C567F5640E0501B8
:101F0000686F0001E2DF00C065F50150300E08E1A6
:101F1000050166A30ED066B70CD066B9200E04D0BA
:101F20000501669766996681012601509EA8FED735
:101F3000AD6E65C567F50A0E686F0001C6DF00C0AB
:101F400065F50150300E08E1050166B70BD066A1BA
:101F500009D066B9200E0001012601509EA8FED7C7
:101F6000AD6E0501300E652765519EA8FED7AD6E9A
:101F7000000158EF1CF0010E0501756F036A7551E1
:101F8000470FE96E050E0320EA6EEFCF74F5745328
:101F900015E0010E755D036A470FE96E050E03201B
:101FA000EA6E74C5EFFF752B036A7551470FE96E32
:101FB000050E0320EA6EEFCF74F5E9D7010E755DCB
:101FC000036A470FE96E050E0320EA6EEF6A00010F
:101FD00082EF16F005017D517F19800B816F7DAF77
:101FE00005D07C1F7D1F7C2BD8B47D2B7FAF05D007
:101FF0007E1F7F1F7E2BD8B47F2B7C517E03F3CFB7
:1020000001F0F4CF00F07F03F35000267D517E03F2
:10201000F3500020026E81AF05D0011E021E012A7E
:10202000D8B4022A000188EF10F005017A6B786BB2
:102030000A0E796F776B766B7451751104E1000E9F
:10204000016E026EE8D07A517A2B036A7425E96E2C
:1020500075510320EA6EEFCF7BF57B512D080DE122
:10206000010E786F7A517A2B036A7425E96E7551E7
:102070000320EA6EEFCF7BF50DD07B512B080AE1F0
:102080007A517A2B036A7425E96E75510320EA6E42
:10209000EFCF7BF57B512F08D8B0AFD07B513908FB
:1020A000D8A0ABD07B51300821E1036A7A51742566
:1020B000E96E75510320EA6EEF5078080AE0036A72
:1020C0007A517425E96E75510320EA6EEF50580875
:1020D0000DE1100E796F7A2B7A517A2B036A7425F1
:1020E000E96E75510320EA6EEFCF7BF579510A084E
:1020F00023E17B512F081FE27B5139081CE37D6BE4
:102100000A0E7C6F77C57FF576C57EF5000162D734
:10211000300E05017B5D0124766F000E0220776F83
:102120007A517A2B036A7425E96E75510320EA6EA1
:10213000EFCF7BF5DED761D0795110085EE17B519E
:10214000600806E27B517A0803E37B51DF0B01D084
:102150007B517B6F7B512F0803E27B51390806E2EC
:102160007B5140084AE27B51460847E37B512F08E8
:1021700019E27B51390816E376357C6F77357D6F30
:102180007C377D377C377D377C377D37F00E7C1789
:10219000300E7B5D7C25016E000E7D2101C076F541
:1021A000776F16D076357C6F77357D6F7C377D37CE
:1021B0007C377D377C377D37F00E7C17410E7B5D99
:1021C0000A0F7C25016E000E7D2101C076F5776F28
:1021D0007A517A2B036A7425E96E75510320EA6EF1
:1021E000EF507B6F600806E27B517A0803E37B5176
:1021F000DF0B01D07B517B6FADD779510A0807E126
:10220000782D05D0761F771F762BD8B4772B76C51F
:1022100001F077C502F000018AEF16F08E0E006E15
:1022200077C501F076C502F0036A01AE05D0011E44
:10223000021E022A01E1012A015209E102C001F055
:10224000026A080E005E015202E1006A0DD0D890C9
:1022500001BE04D0023601360006F9D7050177AF7A
:1022600002D0000101D0019E000150EF17F00501DE
:102270007651D8B4A5D0826F7A51D8B4A1D0825FFC
:1022800005E37F0E8227D8B09BD006D0810E825FF7
:10229000D8A096D0D8B494D082C500F0016A026A62
:1022A000036A816B77C580F5808F78C57FF579C526
:1022B0007EF5190E826F7D517E5F0DE2010E7F5F0C
:1022C0000AE2805F08E2815F06E2812B802B7F2B90
:1022D0007D517E2728D07C517F5F12E2010E805F06
:1022E0000FE2815F0DE2812B802B7C517F277D5196
:1022F0007E2719E37F2B17E1802B15E1812B13D06B
:102300007B518009805F0EE2010E815F0BE2812B21
:102310007B51800980277C517F27E9E3802BE7E10F
:10232000812BE5D70380822F01D00BD0D8907E3748
:102330007F3780378137D8900336023601368337AE
:10234000BAD783A106D0D890013202320332833348
:1023500002D0000635E083BF1ED0D8907E377F378D
:10236000803781377D517E5F07E2010E7F5F04E297
:10237000805F02E2815F1AE37C517F5F05E2010E1C
:10238000805F02E2815F12E37B518009805F03E29C
:10239000010E815F0BE3032A09E1022A07E1012A0A
:1023A00005E1002A0DE001320232033277C582F5E1
:1023B0007B51821B82AF02D0018E06D0019E04D0D9
:1023C000006A016A026A036A000164EF17F0800E76
:1023D000D8A202D00501B71B0501BC6BBD6BB3C50C
:1023E000BBF5B751BB1BB251D8B4DFD0BA6F006E8A
:1023F000B651D8B4E3D0BA5FD8B483D03EE3B7C502
:10240000C0F5C08FB8C5BFF5B9C5BEF5BD6BD890D6
:10241000C033BF33BE33BD33BA2FF8D7BBAF03D001
:10242000BC81E0D0BC91BA91BC89050EEA6EB50EB4
:10243000E96EEBD0BC99BBBF0AD0BAA113D0C033B0
:10244000BF33BE33BD33002AD8B4C7D00BD0C0BF12
:102450000CD0D890BD37BE37BF37C0370006D8B4D0
:10246000BCD0F5D7BC8D6DD0BC9DB3C5BBF5B3AFAB
:1024700002D0C08FABD0C09FA9D0B6C5BAF5B6C543
:1024800000F0B251BA5FB3C5C0F5C08FB4C5BFF597
:10249000B5C5BEF5BD6BD890C033BF33BE33BD33B9
:1024A000BA2FF8D7BBAF03D0BC839CD0BC93BA91F2
:1024B000BC8B050EEA6EB90EE96EA7D0BC9BBBBF04
:1024C0000AD0BAA113D0C033BF33BE33BD33002A04
:1024D000D8B483D00BD0C0BF0CD0D890BD37BE3796
:1024E000BF37C0370006D8B478D0F5D7BC8F29D015
:1024F000BC9FB7C5BBF5B7AF02D0C08F67D0C09F38
:1025000065D0B7C5C0F5C08FB8C5BFF5B9C5BEF5B4
:10251000BBAF04D0C09FBC8565D0BC95BD6BBA91E4
:10252000050EEA6EB50EE96E70D0BBBF1CD0B3C508
:10253000BBF5BAA106D0C033BF33BE33BD33002ACA
:102540004CE0BDAF0BD0BE2B09E1BF2B07E1C02B88
:1025500005E1C033BF33BE33002A3FE0BCBD84D7A2
:10256000BCBFC6D71CD0800EC01BC0AF04D03AD0B1
:10257000B7C5BBF50AD0B3C5BBF5C05306E1BF5321
:1025800004E1BE5302E1006A21D0C0BF08D0D89058
:10259000BD37BE37BF37C037002EF7D71ED0BBAF11
:1025A00002D0C08F13D0C09F11D0B6C500F0B7C500
:1025B000C0F5B8C5BFF5B9C5BEF508D0B2C500F0C5
:1025C000B3C5C0F5B4C5BFF5B5C5BEF5C0C501F00E
:1025D000BFC502F0BEC503F034D0006A016A026ACA
:1025E000036A2FD0BD6BBE1FBF1FC01FBD1FBD2BF9
:1025F00005E1BE2B03E1BF2B01E1C02BBCB112D71B
:10260000BCB354D7BCB589D7B3D7EF50BE2705E3C9
:10261000BF2B03E1C02BD8B4BA81ED52EF50BF27D6
:1026200003E3C02BD8B4BA81ED52EF50EFBE01D016
:10263000800AC027D8B0BA81BCB9FCD6BCBB3ED793
:1026400074D70001000CAFC5B6F50501B351B61B38
:10265000B6AF05D0D894D890AFBFD8802FD0AFC533
:10266000B6F5B2C5B7F5AE51B75F06E0B6AF26D046
:10267000D850010AD86E22D0B3C5B7F5AF51B75FB5
:1026800006E0B6AF1BD0D850010AD86E17D0B4C53B
:10269000B7F5B051B75F06E0B6AF10D0D850010A19
:1026A000D86E0CD0B5C5B7F5B151B75F06E0B6AF7F
:1026B00005D0D850010AD86E01D0D890000157EF4C
:1026C00014F00501B251D8B471D0006EB651D8B42F
:1026D0006DD0002604E3810E002668E204D07F0E50
:1026E000005E64E363E0B3C5BAF5B751BA1BB38FBC
:1026F000B78FB551B903F4CFBCF5B451B803F4CFDB
:1027000003F0F3CFBBF5B903F350BC27F450BB2360
:10271000000E0322B551B803F350BC27F450BB237D
:10272000000E026A03220222B351B903F350BB2701
:10273000F4500322000E0222B351B803F3500326D3
:10274000F4500222000E016A0122B551B703F35082
:10275000BB27F4500322000E02220122B451B7031A
:10276000F3500326F4500222000E0122B351B703A6
:10277000F3500226F4500122002A01BE05D0BB37D7
:102780000336023601360006000EBBAF0AD0032A1C
:1027900002220122015005E1025003E1035001E150
:1027A000002ABABF018EBAAF019E04D0006A016A46
:1027B000026A036A0001000C8E0E006E0501AE5124
:1027C000005EAFC502F0B0C501F0028E005209E014
:1027D000D890025202E1015204E002320132002E8E
:1027E000F7D7AFAF05D0011E021E012AD8B4022AC6
:1027F0000001000C8E0E006EB3C501F0B2C502F0F0
:10280000036A015209E102C001F0026A080E005E8B
:10281000015202E1006A08D0D89001BE04D002360D
:1028200001360006F9D7019E000C05018F6B8E6BF7
:102830008D6B7F0E8C6F7E0E966F800E976F986BF0
:10284000996B7A0E9A6F2A0E9B6FAA0E9C6FAB0E35
:102850009D6F750E9E6FB60E9F6F0B0EA06F610E73
:10286000A16F6F0EA26F500EA36F0D0EA46F010E1D
:10287000A56F690EA66F930EA76FF20EA86F7E0E5E
:10288000A96F620EAA6F0F0EAB6F760EAC6FAE0E15
:10289000AD6F83C5B1F582C5B0F581C5AFF580C513
:1028A000AEF5B56BB46BB36BB26B0001CCD604E381
:1028B00005018151800A816F83C5B5F582C5B4F5E4
:1028C00081C5B3F580C5B2F5830E0501B96FF90E68
:1028D000B86F220EB76F7E0EB66F0001F2DE03C036
:1028E000B1F502C0B0F501C0AFF500C0AEF564DFD0
:1028F00001C090F583C5B5F582C5B4F581C5B3F5C2
:1029000080C5B2F5830E0501B96FF90EB86F220EBE
:10291000B76F7E0EB66F0001D4DE00C0AEF501C009
:10292000AFF502C0B0F503C0B1F50501B36B90C5BA
:10293000B2F500015FDFD882B1C5B5F5B0C5B4F519
:10294000AFC5B3F5AEC5B2F503C0B9F502C0B8F571
:1029500001C0B7F500C0B6F53ADD03C095F502C079
:1029600094F501C093F500C092F5030E0501901790
:10297000905303E0905102081CE195C5B5F594C54C
:10298000B4F593C5B3F592C5B2F5DB0EB96F0F0E72
:10299000B86F490EB76F7F0EB66F000192DE03C0AD
:1029A0008BF502C08AF501C089F500C088F56BD0AF
:1029B0000501902D35D0D882B56BB46BB36B7F0E0B
:1029C000B26F95C5B9F594C5B8F593C5B7F592C57D
:1029D000B6F50001FCDC00C0AEF501C0AFF502C0E9
:1029E000B0F503C0B1F503C0B5F502C0B4F501C040
:1029F000B3F500C0B2F5DB0E0501B96F0F0EB86F6D
:102A0000490EB76F7F0EB66F00015BDE03C08BF51A
:102A100002C08AF501C089F500C088F534D00501EF
:102A2000D88295C5B5F594C5B4F593C5B3F592C5EF
:102A3000B2F5B96BB86BB76B7F0EB66F0001C7DC30
:102A400000C0AEF501C0AFF502C0B0F503C0B1F5EE
:102A500003C0B5F502C0B4F501C0B3F500C0B2F5CE
:102A6000DB0E0501B96F0F0EB86F490EB76F7F0E01
:102A7000B66F000126DE03C08BF502C08AF501C0E7
:102A800089F500C088F50501876B866B856B7F0E25
:102A9000846F8BC5B5F58AC5B4F589C5B3F588C50E
:102AA000B2F58BC5B9F58AC5B8F589C5B7F588C53E
:102AB000B6F5000106DE03C08BF502C08AF501C041
:102AC00089F500C088F50501916B9151050863E314
:102AD0008FC5B5F58EC5B4F58DC5B3F58CC5B2F50A
:102AE0008BC5B9F58AC5B8F589C5B7F588C5B6F5FA
:102AF0000001E7DD03C08FF502C08EF501C08DF542
:102B000000C08CF505019151040DF350036A960F36
:102B1000E96E050E0320EA6EEFCFAEF5ECCFAFF510
:102B2000ECCFB0F5ECCFB1F5B1C5B5F5B0C5B4F5A6
:102B3000AFC5B3F5AEC5B2F58FC5B9F58EC5B8F55D
:102B40008DC5B7F58CC5B6F50001BBDDEACFAFF595
:102B5000E9CFAEF5D89287C5B5F586C5B4F585C57C
:102B6000B3F584C5B2F503C0B9F502C0B8F501C02C
:102B7000B7F500C0B6F52BDCAFC5EAFFAEC5E9FF7F
:102B800003C087F502C086F501C085F500C084F555
:102B90000501912B9AD79051020802E0902D03D0A5
:102BA0008551800A856F84C500F085C501F086C512
:102BB00002F087C503F0000104EF16F0D8827BC550
:102BC000B5F57AC5B4F579C5B3F578C5B2F5DB0EC0
:102BD0000501B96F0F0EB86F490EB76F7F0EB66F54
:102BE0000001E7EC11F000C07CF501C07DF502C0EA
:102BF0007EF503C07FF503C083F502C082F501C0F6
:102C000081F500C080F511D675EF17F00501896BCD
:102C1000886B8551875D0AE303E18651845D06E296
:102C20008451865D886F85518759896F8751855D8D
:102C30000AE303E18451865D06E28651845D886F74
:102C400087518559896F88C501F089C502F0000157
:102C500065EF16F0016A026A006A036A050189518C
:102C600002E1885118E0100E8A6FD89086378737B6
:102C7000003603368951035C02E18851005C07E3AA
:102C80008851005ED8A003068951035ED8800136C2
:102C900002368A2FEAD7000172EF16F005017F3164
:102CA000816F7E31806F8133803381338033813314
:102CB00080330F0E81177BC585F57AC584F57DC5F8
:102CC00087F57CC586F50001A1D702C085F501C056
:102CD00084F502C087F501C086F581C589F580C5F8
:102CE00088F5B8D702C083F501C082F5050182C519
:102CF00001F083C502F000017AEF18F047C566F5D0
:102D0000BBEF0FF0050E0501756F470E746F0001E4
:102D100015EF10F002C068F501C067F505016651B6
:102D2000230A000127E0770A31E0040A35E0190A96
:102D3000D8B4EBD1640AD8B410D2060AD8B44BD2B6
:102D4000780AD8B486D2100AD8B4A3D2050AD8B467
:102D5000D4D20B0AD8B405D3020AD8B436D3070AA2
:102D6000D8B46DD31A0AD8B4A4D3730AD8B4E5D3AF
:102D7000E1EF1BF0010E0501675D006E000E685962
:102D800000C040F303010001E1EF1BF068C542F30E
:102D900067C541F3E1EF1BF00501796B40C378F59E
:102DA0007B6B180E7A6F000149EC02F0200E0501D2
:102DB0000124E96E000E0220EA6E010EEF6E03019F
:102DC000442D0CD10501796B40C378F57B6B180E4F
:102DD0007A6F000149EC02F001C074F50E0E050196
:102DE0000124016E000E0220036E0150200FE96ED7
:102DF000000E0320EA6EECCF75F5ED52EFCF74F5BF
:102E0000796B40C378F57B6B180E7A6F000149EC43
:102E100002F002C077F501C076F50C0E0501012421
:102E2000016E000E0220036E0150200FE96E000EAD
:102E30000320EA6EECCF03F0ED52EF50745F0350C5
:102E4000755BD89075337433796B40C378F57B6BC1
:102E5000180E7A6F000149EC02F001C076F50C0EF5
:102E600005010124016E000E0220036E0150200FA7
:102E7000E96E000E0320EA6EECCF03F0ED52EF5046
:102E800074256D6F035075216E6F68C575F567C544
:102E900074F568C577F567C576F500010EEF11F09A
:102EA00003C079F502C078F501C077F500C076F56A
:102EB000E10E05017D6F2E0E7C6F650E7B6F840E1B
:102EC0007A6F000137EF11F000C074F501C075F59D
:102ED00002C076F503C077F503C07BF502C07AF532
:102EE00001C079F500C078F569D603C06CF502C061
:102EF0006BF501C06AF500C069F50501796B40C347
:102F000078F57B6B180E7A6F000149EC02F001C076
:102F100074F50E0E05010124016E000E0220036EF1
:102F20000150200FE96E000E0320EA6EECCF75F51C
:102F3000ED52EFCF74F56D51745D006E6E517559A1
:102F4000036E00C0B2F5B36F000154DC6CC5B5F57B
:102F50006BC5B4F56AC5B3F569C5B2F503C0B9F57B
:102F600002C0B8F501C0B7F500C0B6F561EC13F0CA
:102F700000C074F501C075F502C076F503C077F5A1
:102F80006EC5B3F56DC5B2F535DCEACF79F5E9CF9D
:102F900078F5D89277C5B5F576C5B4F575C5B3F5AE
:102FA00074C5B2F503C0B9F502C0B8F501C0B7F5F4
:102FB00000C0B6F5E7EC11F079C5EAFF78C5E9FF86
:102FC00003C0B1F502C0B0F501C0AFF500C0AEF569
:102FD000DCEC13F002C068F501C067F50501796B00
:102FE00040C378F57B6B180E7A6F000149EC02F054
:102FF00001C074F5030E05010124016E000E0220CC
:10300000036E0150200FE96E000E0320EA6E68C5C2
:10301000ECFFED5267C5EFFF40C374F50001FBEC18
:1030200004F00301415302E142536DE00501796B65
:1030300040C378F57B6B180E7A6F000149EC02F003
:1030400001C074F5050E05010124016E000E022079
:10305000036E0150200F016E000E032201C074F5B3
:1030600003C075F5796B40C378F57B6B180E7A6FEA
:10307000000149EC02F001C076F5010E05010124C2
:10308000016E000E0220036E0150200FE96E000E4B
:103090000320EA6EECCF77F5ED52EFCF76F5796B42
:1030A00040C378F57B6B180E7A6F000149EC02F093
:1030B00001C078F5030E05010124016E000E022007
:1030C000036E0150200FE96E000E0320EA6EECCF74
:1030D00079F5ED52EFCF78F577C57BF576C57AF5C2
:1030E00079C57DF578C57CF542C37FF541C37EF592
:1030F0000001D4D575C5EAFF74C5E9FF02C0ECFF35
:10310000ED5201C0EFFF00015CD30501796B40C3B4
:1031100078F57B6B180E7A6F000149EC02F001C064
:1031200074F5030E05010124016E000E0220036EEA
:103130000150200FE96E000E0320EA6E6751EF2464
:10314000016E6851EC20ED5201C0EFFFEC6E40C300
:1031500074F50001FBEC04F034D30501796B40C336
:1031600078F57B6B180E7A6F000149EC02F001C014
:1031700074F50C0E05010124016E000E0220036E91
:103180000150200FE96E000E0320EA6E68C5ECFFC7
:10319000ED5267C5EFFF796B40C378F57B6B180E76
:1031A0007A6F000149EC02F001C074F5120E0501BE
:1031B0000124016E000E0220036E0150200FE96E03
:1031C000000E0320EA6E010EEF6E40C374F500019D
:1031D000FBEC04F0F6D20501796B40C378F57B6B0C
:1031E000180E7A6F000149EC02F001C074F50E0E62
:1031F00005010124016E000E0220036E0150200F14
:10320000E96E000E0320EA6E68C5ECFFED5267C55B
:10321000EFFF796B40C378F57B6B180E7A6F000176
:1032200049EC02F001C074F5130E05010124016E92
:10323000000E0220036E0150200FE96E000E0320E5
:10324000EA6E010EEF6E40C374F50001FBEC04F072
:10325000B8D20501796B40C378F57B6B180E7A6F95
:10326000000149EC02F001C074F5050E05010124CE
:10327000016E000E0220036E0150200FE96E000E59
:103280000320EA6E68C5ECFFED5267C5EFFF000151
:1032900098D20501796B40C378F57B6B180E7A6F75
:1032A000000149EC02F0200E05010124E96E000E38
:1032B0000220EA6E020EEF6E796B40C378F57B6BED
:1032C000180E7A6F000149EC02F001C074F5140E7B
:1032D00005010124016E000E0220036E0150200F33
:1032E000E96E000E0320EA6E010E675D006E000EAF
:1032F000685900C0EFFF000164D20501796B40C33B
:1033000078F57B6B180E7A6F000149EC02F0200E05
:1033100005010124E96E000E0220EA6E040EEF6E34
:10332000796B40C378F57B6B180E7A6F000149EC1E
:1033300002F001C074F5140E05010124016E000EA7
:103340000220036E0150200FE96E000E0320EA6E8A
:10335000010E675D006E000E685900C0EFFF0001AE
:1033600030D20501796B40C378F57B6B180E7A6F0C
:10337000000149EC02F0200E05010124E96E000E67
:103380000220EA6E030EEF6E796B40C378F57B6B1B
:10339000180E7A6F000149EC02F001C074F5140EAA
:1033A00005010124016E000E0220036E0150200F62
:1033B000E96E000E0320EA6E010E675D006E000EDE
:1033C000685900C0EFFF0001FCD10501796B40C3D3
:1033D00078F57B6B180E7A6F000149EC02F001C0A2
:1033E00074F5080E05010124016E000E0220036E23
:1033F0000150200FE96E000E0320EA6E68C5ECFF55
:10340000ED5267C5EFFF796B40C378F57B6B180E03
:103410007A6F000149EC02F001C074F5100E05014D
:103420000124016E000E0220036E0150200FE96E90
:10343000000E0320EA6E010EEF6E0001C2D10501FD
:10344000796B40C378F57B6B180E7A6F000149ECFD
:1034500002F001C074F50A0E05010124016E000E90
:103460000220036E0150200FE96E000E0320EA6E69
:1034700068C5ECFFED5267C5EFFF796B40C378F587
:103480007B6B180E7A6F000149EC02F001C074F5F5
:10349000110E05010124016E000E0220036E015081
:1034A000200FE96E000E0320EA6E010EEF6E0001A0
:1034B00088D10501796B40C378F57B6B180E7A6F64
:1034C000000149EC02F001C074F5030E050101246E
:1034D000016E000E0220036E0150200F016E000EDF
:1034E000032201C074F503C075F5796B40C378F50C
:1034F0007B6B180E7A6F000149EC02F001C076F583
:103500000A0E05010124016E000E0220036E015017
:10351000200FE96E000E0320EA6EECCF03F0ED52AF
:10352000EFCF76F575C5EAFF74C5E9FF03C0ECFF80
:10353000ED5276C5EFFF000144D1440E05016F6FD7
:103540004F0E706F4E0E716F726B050E776F470ED8
:10355000766F050E796F6F0E786F00010AEC0EF032
:1035600001521BE10501796B40C378F57B6B180EA6
:103570007A6F000149EC02F001C074F5070E0501F5
:103580000124016E000E0220036E0150200FE96E2F
:10359000000E0320EA6E010EEF6E4F0E05016F6FF5
:1035A0004E0E706F716B050E776F470E766F050EBE
:1035B000796F6F0E786F00010AEC0EF0015202E194
:1035C0000301436B4F0E05016F6F460E706F716FF5
:1035D000726B050E776F470E766F050E796F6F0E63
:1035E000786F00010AEC0EF001521BE1010E03019D
:1035F000436F0501656B65511F0813E3796B40C389
:1036000078F57B6B180E7A6F000149EC02F0200E02
:1036100005010124E96E000E0220EA6EEF6A652BB7
:10362000EAD7480E05016F6F4F0E706F4D0E716F28
:10363000450E726F736B050E776F470E766F050E32
:10364000796F6F0E786F00010AEC0EF00152D8A46A
:103650009ED00301436B0501656B65511F08D8A01F
:1036600096D0796B40C378F57B6B180E7A6F0001AA
:1036700049EC02F0200E05010124E96E000E022043
:10368000EA6E010EEF6E796B40C378F57B6B180E16
:103690007A6F000149EC02F001C074F5010E0501DA
:1036A0000124016E000E0220036E0150200F016EF6
:1036B000000E032201C074F503C075F5796B40C399
:1036C00078F57B6B180E7A6F000149EC02F001C0AF
:1036D00076F50A0E05010124016E000E0220036E2C
:1036E0000150200FE96E000E0320EA6EECCF03F0CC
:1036F000ED52EFCF76F575C5EAFF74C5E9FF03C05B
:10370000ECFFED5276C5EFFF796B40C378F57B6B2C
:10371000180E7A6F000149EC02F001C074F5030E37
:1037200005010124016E000E0220036E0150200FDE
:10373000016E000E032201C074F503C075F5796BAC
:1037400040C378F57B6B180E7A6F000149EC02F0EC
:1037500001C076F50A0E05010124016E000E02205B
:10376000036E0150200FE96E000E0320EA6EECCFCD
:1037700003F0ED52EFCF76F575C5EAFF74C5E9FFAA
:1037800003C0ECFFED5276C5EFFF652B66D7530EF5
:1037900005016F6F490E706F4E0E716F726B050EE3
:1037A000776F470E766F050E796F6F0E786F000199
:1037B0000AEC0EF0015204E1010E0301446F000116
:1037C00000D082EF1CF0A8EF0DF005015B6B030148
:1037D000446B05015C6B0001D5EC0DF0050EEA6E43
:1037E0005E0EE96E070E016EF76A000E7FEC00F0C8
:1037F0000A000900F5CFEEFF012EFBD7050E0501EB
:10380000776F470E766F050E796F5E0E786F000149
:103810000AEC0EF0015212E0040EEA6E450EE96E5B
:1038200046EC0EF00D0E9EA8FED7AD6E0A0E9EA8B9
:10383000FED7AD6E010E05015C6F0001D5EC0DF0F9
:10384000240E05015E6F310E5F6F606B050E776FA2
:10385000470E766F050E796F5E0E786F00010AECE9
:103860000EF0015243E0300E0501476F050E666F02
:10387000470E656F000181EF0EF0010E015C05013E
:103880005D6FDC0EF66E010EF76E000153EF0FF068
:10389000200E9EA8FED7AD6E240E9EA8FED7AD6E5C
:1038A0005DC565F51B0E0501666F00017BEF0FF02E
:1038B000690E9EA8FED7AD6E05015C530FE10001B5
:1038C000D5EC0DF0050EEA6E470EE96E46EC0EF0F3
:1038D000200E9EA8FED7AD6EEFD705010D0E9EA857
:1038E000FED7AD6E0A0E9EA8FED7AD6E0301426BE9
:1038F000416B406B05015C5308E10001D5EC0DF014
:103900007EEF16F00301F6D7050100018DEF1CF0E4
:103910005BEF0DF0012C01D056D749EF1EF00501E9
:103920005D6B5D511F08D8A072D1796B5DC578F5CC
:103930007B6B180E7A6F000149EC02F002C05FF554
:1039400001C05EF5100E05010124016E000E02207B
:10395000036E0150200FE96E000E0320EA6EEF2C7B
:1039600040D0796B5DC578F57B6B180E7A6F0001DE
:1039700049EC02F001C05EF5080E05010124016E5C
:10398000000E0220036E0150200FE96E000E03208E
:10399000EA6EECCF5FF5ED52EFCF5EF55DC560F5F9
:1039A0005FC562F55EC561F5000133EC01F005010C
:1039B000796B5DC578F57B6B180E7A6F000149EC69
:1039C00002F001C05EF5100E05010124016E000E2B
:1039D0000220036E0150200FE96E000E0320EA6EF4
:1039E000EF6A796B5DC578F57B6B180E7A6F000115
:1039F00049EC02F002C05FF501C05EF5110E050151
:103A00000124016E000E0220036E0150200FE96EAA
:103A1000000E0320EA6EEF2C40D0796B5DC578F57F
:103A20007B6B180E7A6F000149EC02F001C05EF565
:103A30000A0E05010124016E000E0220036E0150E2
:103A4000200FE96E000E0320EA6EECCF5FF5ED5219
:103A5000EFCF5EF55DC560F55FC562F55EC561F5EA
:103A60000001F2EC00F00501796B5DC578F57B6B28
:103A7000180E7A6F000149EC02F001C05EF5110EDC
:103A800005010124016E000E0220036E0150200F7B
:103A9000E96E000E0320EA6EEF6A796B5DC578F57A
:103AA0007B6B180E7A6F000149EC02F002C05FF5E3
:103AB00001C05EF5120E05010124016E000E022008
:103AC000036E0150200FE96E000E0320EA6EEF2C0A
:103AD00040D0796B5DC578F57B6B180E7A6F00016D
:103AE00049EC02F001C05EF50C0E05010124016EE7
:103AF000000E0220036E0150200FE96E000E03201D
:103B0000EA6EECCF5FF5ED52EFCF5EF55DC560F587
:103B10005FC562F55EC561F5000174EC01F0050159
:103B2000796B5DC578F57B6B180E7A6F000149ECF7
:103B300002F001C05EF5120E05010124016E000EB7
:103B40000220036E0150200FE96E000E0320EA6E82
:103B5000EF6A796B5DC578F57B6B180E7A6F0001A3
:103B600049EC02F002C05FF501C05EF5130E0501DD
:103B70000124016E000E0220036E0150200FE96E39
:103B8000000E0320EA6EEF2C40D0796B5DC578F50E
:103B90007B6B180E7A6F000149EC02F001C05EF5F4
:103BA0000E0E05010124016E000E0220036E01506D
:103BB000200FE96E000E0320EA6EECCF5FF5ED52A8
:103BC000EFCF5EF55DC560F55FC562F55EC561F579
:103BD0000001B5EC01F00501796B5DC578F57B6BF3
:103BE000180E7A6F000149EC02F001C05EF5130E69
:103BF00005010124016E000E0220036E0150200F0A
:103C0000E96E000E0320EA6EEF6A5D2B8AD6000192
:103C10004AEF1EF0F86AD09E078EEA6AE96A700ED3
:103C2000D36E400E9B6ED350B886820EAF6E060EDA
:103C3000B06EA60EAC6E900EAB6E939E8A8E000E8A
:103C40007E6EC198C19A7F50E00B7F6E799A799809
:103C50007A6A7B6A1A6A1B6AD8EF02F0030143533F
:103C600016E10001B4EF08F0D0EF0BF0CE50CFCF4B
:103C700003F005015D6FCF505E6F7C08D8A002D0C5
:103C80000001F4D7CF6ACE6A000122EF0DF00001E7
:083C90003FD645D6E3D703003F
:020000040030CA
:0E00000000C8190E000D81000FC00FE00F4068
:00000001FF
;PIC18F46K20
;CRC=A8A9  CREATED="03-Oct-11 21:08"
