:04000000B2EF1AF051
:08000800046ED8CF05F0E0CF33
:1000100006F00001E9CF0CF0EACF07F0E1CF08F0DD
:10002000E2CF09F0D9CF0AF0DACF0BF0F3CF12F01C
:10003000F4CF13F0FACF14F0F5CF15F0F6CF16F099
:10004000F7CF17F000C00EF001C00FF002C010F0A3
:1000500003C011F09DAA30EF00F09EBA96EF00F0B9
:100060000EC000F00FC001F010C002F011C003F08C
:100070000CC0E9FF07C0EAFF078E08C0E1FF09C016
:10008000E2FF0AC0D9FF0BC0DAFF12C0F3FF13C0B2
:10009000F4FF14C0FAFF15C0F5FF16C0F6FF17C035
:1000A000F7FF045006C0E0FF05C0D8FF1000F76A54
:1000B000BE0FF66E000EF7220900F5501200007C0C
:1000C000017C027C037C047C057C077C067C0101AE
:1000D000EC6B0201EE6BED910101ED6B0001000C88
:1000E000030EEA6E6A0EE96EEF500EE0140E016E1A
:1000F000006A002EFED7012EFBD7BF0E006E002E29
:10010000FED700D0EF2EF2D7000C8B9A949A640E93
:1001100003016A6F0001E4DF8B8A949A640E030185
:100120006A6F0001DDDFF1D7C7EF00F09EAA31D082
:100130009EAAFED7AECF69F303010101EC3D01D0C9
:100140001DD0030169510D0803E10201EE2B0301EB
:1001500069510A0814E0036A0101EC51ED0FE96EE0
:10016000000E0320EA6E69C3EFFFEC2B036AEC512B
:10017000ED0FE96E000E0320EA6EEF6A0301010144
:10018000EC3D05D00201ED810001A1DFBED70001E9
:10019000CDD79E9A30EF00F0405353583800D89096
:1001A00003010835200F0B6F0C6B09C30DF30AC355
:1001B0000EF30CC3AAFF0BC3A9FF0DC3A8FFA69C97
:1001C000A69EA684F250006EF29E0F01550EA76EF9
:1001D000AA0EA76EA682A6B2FED7A6940050F2126F
:1001E000010E03010B250F6F000E0C21106F10C3C1
:1001F000AAFF0FC3A9FF0EC3A8FFA69CA69EA684B4
:10020000F250006EF29E0F01550EA76EAA0EA76E59
:10021000A682A6B2FED7A6940050F2120001000CEE
:10022000D89003010835400F0B6F0C6B09C30DF319
:100230000AC30EF30CC3AAFF0BC3A9FF0DC3A8FF8B
:10024000A69CA69EA684F250006EF29E0F01550E4B
:10025000A76EAA0EA76EA682A6B2FED7A6940050DD
:10026000F212010E03010B250F6F000E0C21106F0F
:1002700010C3AAFF0FC3A9FF0EC3A8FFA69CA69E8A
:10028000A684F250006EF29E0F01550EA76EAA0EC4
:10029000A76EA682A6B2FED7A6940050F212000165
:1002A000000CD89003010835600F0B6F0C6B09C36D
:1002B0000DF30AC30EF30CC3AAFF0BC3A9FF0DC3B2
:1002C000A8FFA69CA69EA684F250006EF29E0F0187
:1002D000550EA76EAA0EA76EA682A6B2FED7A6944A
:1002E0000050F212010E03010B250F6F000E0C21BE
:1002F000106F10C3AAFF0FC3A9FF0EC3A8FFA69CCF
:10030000A69EA684F250006EF29E0F01550EA76EB7
:10031000AA0EA76EA682A6B2FED7A6940050F2122D
:100320000001000CD89003010835800F0B6F0C6B97
:1003300009C30DF30AC30EF30CC3AAFF0BC3A9FF35
:100340000DC3A8FFA69CA69EA684F250006EF29E46
:100350000F01550EA76EAA0EA76EA682A6B2FED7F3
:10036000A6940050F212010E03010B250F6F000E30
:100370000C21106F10C3AAFF0FC3A9FF0EC3A8FF63
:10038000A69CA69EA684F250006EF29E0F01550E0A
:10039000A76EAA0EA76EA682A6B2FED7A69400509C
:1003A000F2120001000CAA6AA96A010EA86EA69CAE
:1003B000A69EA684F250006EF29E0F01550EA76E07
:1003C000AA0EA76EA682A6B2FED7A6940050F2127D
:1003D0000301066B0651070822E306C308F30A6B04
:1003E000096B0001DCDE06C308F303010A6B096B2D
:1003F000000116DF06C308F3030E03010A6F200E87
:10040000096F00014EDF06C308F3080E03010A6FEF
:10041000980E096F000186DF0301062BDBD7000170
:1004200022EF02F0F2CF06F3F29EAA6AA96AA69C16
:10043000A69EA680A850030106BFF28EFF0803E126
:100440000001B1D703010001E1EF02F003011051F7
:100450001203F3CF01F0F4CF00F01303F3500026A2
:1004600011511203F3500020026E0001000CD890CD
:1004700003010835400F096F0A6BF2CF0BF3F29EB0
:100480000AC3AAFF09C3A9FFA69CA69EA680A850DE
:100490000BBFF28E0C6F010E09250D6F000E0A21A5
:1004A0000E6FF2CF0FF3F29E0EC3AAFF0DC3A9FF8A
:1004B000A69CA69EA680A8500FBFF28E0E6F116B51
:1004C0000EC310F3010E136F126B0001BFDF02C0E9
:1004D00003F0015003010C25016E000E03220150B0
:1004E000016E0350026E00015DEF03F0D89003012E
:1004F0000835200F096F0A6BF2CF0BF3F29E0AC387
:10050000AAFF09C3A9FFA69CA69EA680A8500BBF60
:10051000F28E0C6F010E09250D6F000E0A210E6F71
:10052000F2CF0FF3F29E0EC3AAFF0DC3A9FFA69C44
:10053000A69EA680A8500FBFF28E0E6F116B0EC341
:1005400010F3010E136F126B000180DF02C003F085
:10055000015003010C25016E000E03220150016EB3
:100560000350026E00017FEF03F0000E7E6EC19813
:10057000C19A7F50E00B7F6EC050C00BC06EC09E12
:10058000C280C69A949A94889496010EC66E000E04
:10059000C76ED190830ED56EB50ECD6E000ECA6EAD
:1005A000000ECB6EB16A9484BD6AB76AB66A010E5A
:1005B000B96E799A7998040E7A6E7B6E8B8A949ACA
:1005C00031D70301056B05510708D8A077D1055134
:1005D000180DF350076B066F200E0625E96E000E0E
:1005E0000721EA6EEF6A0551180DF350076B066F8D
:1005F000010E0625016E000E0721036E0150200F2B
:10060000E96E000E0320EA6E050EEC6EED52DC0E74
:10061000EF6E0551180DF350076B066F030E06259C
:10062000016E000E0721036E0150200FE96E000ECF
:100630000320EA6E050EEC6EED52DC0EEF6E0551F6
:10064000180DF350076B066F050E0625016E000EA0
:100650000721036E0150200FE96E000E0320EA6EA1
:10066000EC6AED52EF6A0551180DF350076B066FF7
:10067000070E0625016E000E0721036E0150200FA4
:10068000E96E000E0320EA6EEF6A0551180DF35073
:10069000076B066F080E0625016E000E0721036E1C
:1006A0000150200F016E000E032201C006F303C0AB
:1006B00007F305C308F30001DAD607C3EAFF06C350
:1006C000E9FF02C0ECFFED5201C0EFFF030105514D
:1006D000180DF350076B066F0A0E0625016E000E0B
:1006E0000721036E0150200F016E000E032201C08E
:1006F00006F303C007F305C308F30001F7D607C3E9
:10070000EAFF06C3E9FF02C0ECFFED5201C0EFFFB4
:1007100003010551180DF350076B066F0C0E0625EB
:10072000016E000E0721036E0150200FE96E000ECE
:100730000320EA6E030EEC6EED52200EEF6E0551B3
:10074000180DF350076B066F0E0E0625016E000E96
:100750000721036E0150200FE96E000E0320EA6EA0
:10076000080EEC6EED52980EEF6E0551180DF35019
:10077000076B066F100E0625016E000E0721036E33
:100780000150200FE96E000E0320EA6EEF6A05515A
:10079000180DF350076B066F110E0625016E000E43
:1007A0000721036E0150200FE96E000E0320EA6E50
:1007B000EF6A0551180DF350076B066F120E0625F0
:1007C000016E000E0721036E0150200FE96E000E2E
:1007D0000320EA6EEF6A0551180DF350076B066FA0
:1007E000130E0625016E000E0721036E0150200F27
:1007F000E96E000E0320EA6EEF6A0551180DF35002
:10080000076B066F140E0625016E000E0721036E9E
:100810000150200FE96E000E0320EA6EEF6A0551C9
:10082000180DF350076B066F150E0625016E000EAE
:100830000721036E0150200FE96E000E0320EA6EBF
:10084000EF6A0551180DF350076B066F160E06255B
:10085000016E000E0721036E0150200FE96E000E9D
:100860000320EA6EEC6AED52EF6A0551180DF35061
:10087000076B066F0A0E0625016E000E0721036E38
:100880000150200FE96E000E0320EA6EECCF07F353
:10089000ED52EFCF06F3065302E107530DE0055189
:1008A000180DF350076B066F200E0625E96E000E3B
:1008B0000721EA6E010EEF6E052B85D6010E0001B1
:1008C000EB6FB886400EAF6E030EB06EA60EAC6E28
:1008D00067EC00F09D8AC00EF212D6EF1AF0030109
:1008E0001B51180DF3501D6B1C6F030E1C25016E60
:1008F000000E1D21036E0150200FE96E000E032033
:10090000EA6EECCF1DF3ED52EFCF1CF31B51180D27
:10091000F3501F6B1E6F0C0E1E25016E000E1F2163
:10092000036E0150200FE96E000E0320EA6EECCF3B
:1009300003F0ED52EFCF01F01D51035C37E303E10B
:1009400001501C5D33E21B51180DF3501D6B1C6FE1
:10095000030E1C25016E000E1D21036E0150200F99
:10096000016E000E032201C01CF303C01DF31B51D6
:10097000180DF3501F6B1E6F0C0E1E25016E000E1E
:100980001F21036E0150200FE96E000E0320EA6E56
:10099000ECCF03F0ED52EFCF1EF31DC3EAFF1CC3F3
:1009A000E9FF03C0ECFFED521EC3EFFF1B51180D12
:1009B000F3501D6B1C6F030E1C25016E000E1D21D4
:1009C000036E0150200FE96E000E0320EA6EECCF9B
:1009D0001DF3ED52EFCF1CF31B51180DF3501F6B9D
:1009E0001E6F0E0E1E25016E000E1F21036E01509C
:1009F000200FE96E000E0320EA6EECCF03F0ED52FB
:100A0000EFCF01F003501D5D37E303E11C51015CA2
:100A100033E21B51180DF3501D6B1C6F030E1C2588
:100A2000016E000E1D21036E0150200F016E000E9D
:100A3000032201C01CF303C01DF31B51180DF3501A
:100A40001F6B1E6F0E0E1E25016E000E1F21036E02
:100A50000150200FE96E000E0320EA6EECCF03F088
:100A6000ED52EFCF1EF31DC3EAFF1CC3E9FF03C025
:100A7000ECFFED521EC3EFFF0001000C0301065115
:100A8000180DF350086B076F050E0725016E000E59
:100A90000821036E0150200FE96E000E0320EA6E5C
:100AA000ECCF08F3ED52EFCF07F3075336E10853CD
:100AB00034E10651180DF350086B076F010E07253E
:100AC000016E000E0821036E0150200F016E000E12
:100AD000032201C007F303C008F30651180DF350B9
:100AE0000A6B096F030E0925016E000E0A21036EC1
:100AF0000150200FE96E000E0320EA6EECCF03F0E8
:100B0000ED52EFCF09F308C3EAFF07C3E9FF03C0C3
:100B1000ECFFED5209C3EFFFCDD10651180DF35094
:100B2000086B076F010E0725016E000E0821036E8A
:100B30000150200FE96E000E0320EA6EECCF08F39F
:100B4000ED52EFCF07F30651180DF3500A6B096F02
:100B5000030E0925016E000E0A21036E0150200FBD
:100B6000E96E000E0320EA6EECCF03F0ED52EFCFFA
:100B700001F00851035CD8A0B7D004E10150075D33
:100B8000D8B0B2D00651180DF350086B076F010EA4
:100B90000725016E000E0821036E0150200F016E23
:100BA000000E032201C007F303C008F30651180D1D
:100BB000F3500A6B096F010E0925016E000E0A2120
:100BC000036E0150200FE96E000E0320EA6EECCF99
:100BD0000AF3ED52EFCF09F30651180DF3500C6BE9
:100BE0000B6F050E0B25016E000E0C21036E0150DC
:100BF000200FE96E000E0320EA6EECCF03F0ED52F9
:100C0000EF500925016E0A51032208C3EAFF07C30A
:100C1000E9FF03C0ECFFED5201C0EFFF0651180DD4
:100C2000F350086B076F010E0725016E000E0821B7
:100C3000036E0150200FE96E000E0320EA6EECCF28
:100C400008F3ED52EFCF07F30651180DF3500A6B7E
:100C5000096F030E0925016E000E0A21036E015073
:100C6000200FE96E000E0320EA6EECCF03F0ED5288
:100C7000EFCF01F00350085D37E303E10751015C5A
:100C800033E20651180DF350086B076F010E07256C
:100C9000016E000E0821036E0150200F016E000E40
:100CA000032201C007F303C008F30651180DF350E7
:100CB0000A6B096F030E0925016E000E0A21036EEF
:100CC0000150200FE96E000E0320EA6EECCF03F016
:100CD000ED52EFCF09F308C3EAFF07C3E9FF03C0F2
:100CE000ECFFED5209C3EFFF0651180DF350086BEE
:100CF000076F010E0725016E000E0821036E0150DB
:100D0000200FE96E000E0320EA6EECCF08F3ED52DF
:100D1000EFCF07F30651180DF3500A6B096F030E5E
:100D20000925016E000E0A21036E0150200FE96EA5
:100D3000000E0320EA6EECCF03F0ED52EFCF01F08E
:100D40000350085DD8A0B6D004E10751015CD8B0CB
:100D5000B1D00651180DF350086B076F010E07252F
:100D6000016E000E0821036E0150200F016E000E6F
:100D7000032201C007F303C008F30651180DF35016
:100D80000A6B096F010E0925016E000E0A21036E20
:100D90000150200FE96E000E0320EA6EECCF0AF33B
:100DA000ED52EFCF09F30651180DF3500C6B0B6F9A
:100DB000050E0B25016E000E0C21036E0150200F55
:100DC000E96E000E0320EA6EECCF03F0ED52EF5017
:100DD000095D006E03500A5908C3EAFF07C3E9FF23
:100DE000EC6EED5200C0EFFF0651180DF350086B8A
:100DF000076F010E0725016E000E0821036E0150DA
:100E0000200FE96E000E0320EA6EECCF08F3ED52DE
:100E1000EFCF07F30651180DF3500A6B096F030E5D
:100E20000925016E000E0A21036E0150200FE96EA4
:100E3000000E0320EA6EECCF03F0ED52EFCF01F08D
:100E40000851035C37E303E10150075D33E20651CB
:100E5000180DF350086B076F010E0725016E000E89
:100E60000821036E0150200F016E000E032201C005
:100E700007F303C008F30651180DF3500A6B096F0E
:100E8000030E0925016E000E0A21036E0150200F8A
:100E9000E96E000E0320EA6EECCF03F0ED52EFCFC7
:100EA00009F308C3EAFF07C3E9FF03C0ECFFED52F3
:100EB00009C3EFFF0001000C0301056B0551070892
:100EC000D8A004D205C31BF3000109DD03010551BD
:100ED000180DF350076B066F200E0625E96E000E05
:100EE0000721EA6EEF2C38D005C306F30001C6DDFA
:100EF00003010551180DF350076B066F160E0625FA
:100F0000016E000E0721036E0150200F016E000ECE
:100F1000032201C006F303C007F30551180DF35077
:100F2000096B086F010E0825016E000E0921036E82
:100F30000150200FE96E000E0320EA6EECCF03F0A3
:100F4000ED52EFCF08F307C3EAFF06C3E9FF03C082
:100F5000ECFFED5208C3EFFF0551180DF350076B7E
:100F6000066F200E0625E96E000E0721EA6EEF508F
:100F7000020844E10551180DF350076B066F160E79
:100F80000625016E000E0721036E0150200F016E31
:100F9000000E032201C006F303C007F30551180D2C
:100FA000F350096B086F140E0825016E000E09211D
:100FB000036E0150200FE96E000E0320EA6EEF5021
:100FC000180DF350096B086F010E0825016E000E15
:100FD0000921036E0150200FE96E000E0320EA6E16
:100FE000ECCF03F0ED52EFCF08F307C3EAFF06C3DF
:100FF000E9FF03C0ECFFED5208C3EFFF0551180DE8
:10100000F350076B066F200E0625E96E000E0721D0
:10101000EA6EEF500308D8A4CDD00551180DF35057
:10102000076B066F140E0625016E000E0721036E76
:101030000150200FE96E000E0320EA6EEF50180DEC
:10104000F350076B066F010E0625016E000E072197
:10105000036E0150200FE96E000E0320EA6EECCF04
:1010600007F3ED52EFCF06F30751040856E2FF0AEB
:1010700003E10651DC0851E20551180DF350076BEE
:10108000066F160E0625016E000E0721036E015035
:10109000200F016E000E032201C006F303C007F308
:1010A0000551180DF350096B086F140E0825016ED9
:1010B000000E0921036E0150200FE96E000E03207F
:1010C000EA6EEF50180DF350096B086F010E0825FA
:1010D000016E000E0921036E0150200FE96E000E13
:1010E0000320EA6EECCF09F3ED52EFCF08F3DC0EEC
:1010F000085D006E050E0959036E0050FF0ADD0FF2
:10110000006E050E035607C3EAFF06C3E9FF03C0DE
:10111000ECFFED5200C0EFFF4DD00551180DF3501C
:10112000076B066F160E0625016E000E0721036E73
:101130000150200F016E000E032201C006F303C010
:1011400007F30551180DF350096B086F140E0825AD
:10115000016E000E0921036E0150200FE96E000E92
:101160000320EA6EEF50180DF350096B086F010E63
:101170000825016E000E0921036E0150200FE96E53
:10118000000E0320EA6EECCF03F0ED52EF50FF0AA1
:10119000DD0F086F050E0354096FDC0E0825016E84
:1011A000050E092107C3EAFF06C3E9FFEC6EED5205
:1011B00001C0EFFF0551180DF350076B066F200EAD
:1011C0000625E96E000E0721EA6EEF5004087CE167
:1011D0000551180DF350076B066F030E0625016EBF
:1011E000000E0721036E0150200F016E000E032236
:1011F00001C006F303C007F30551180DF350096B46
:10120000086F140E0825016E000E0921036E0150AF
:10121000200FE96E000E0320EA6EEF50180DF35018
:10122000096B086F010E0825016E000E0921036E7F
:101230000150200FE96E000E0320EA6EECCF03F0A0
:10124000ED52EFCF08F307C3EAFF06C3E9FF03C07F
:10125000ECFFED5208C3EFFF05C306F300010EDCFF
:1012600003010551180DF350076B066F160E062586
:10127000016E000E0721036E0150200F016E000E5B
:10128000032201C006F303C007F30551180DF35004
:10129000096B086F010E0825016E000E0921036E0F
:1012A0000150200FE96E000E0320EA6EECCF03F030
:1012B000ED52EFCF08F307C3EAFF06C3E9FF03C00F
:1012C000ECFFED5208C3EFFF052BF8D50551180DC3
:1012D000F350076B066F160E0625016E000E0721F0
:1012E000036E0150200F016E000E032201C006F3B1
:1012F00003C007F30551180DF350096B086F160E64
:101300000825016E000E0921036E0150200FE96EC1
:10131000000E0320EA6EECCF09F3ED52EFCF08F395
:101320000551180DF3500B6B0A6F080E0A25016E5C
:10133000000E0B21036E0150200FE96E000E0320FA
:10134000EA6EECCF03F0ED52EF500825016E095123
:10135000032207C3EAFF06C3E9FF03C0ECFFED5217
:1013600001C0EFFF0001DAEF1AF00301056B055130
:1013700007080BE3036A0551E00FE96E000E032036
:10138000EA6E05C3EFFF052BF2D7010E076F072D9D
:1013900077D0076B056B0551060871E3036A0551A9
:1013A000E00FE96E000E0320EA6EEF50180DF350C7
:1013B000096B086F160E0825016E000E0921036ED9
:1013C0000150200FE96E000E0320EA6EECCF09F306
:1013D000ED52EFCF08F3010E0525036AE00FE96E29
:1013E000000E0320EA6EEF50180DF3500B6B0A6FDE
:1013F000160E0A25016E000E0B21036E0150200F00
:10140000E96E000E0320EA6EECCF03F0ED52EFCF51
:1014100001F00350095D31E303E10851015C2DE265
:10142000036A0551E00FE96E000E0320EA6EEFCF6C
:1014300006F3036A0551E00F016E000E032203C09C
:1014400009F3010E0525036AE00FE96E000E032083
:10145000EA6EEFCF0AF309C3EAFF01C0E9FF0AC34E
:10146000EFFF010E0525036AE00FE96E000E032071
:10147000EA6E06C3EFFF010E076F052B8CD787D7E7
:101480000001DCEF1AF003010B51070B006E0B316A
:10149000016E013201321F0E011601500D25E96E59
:1014A000000E0E21EA6E016A012A002A01D00136DF
:1014B000002EFDD70C5303E00150EF1203D0011EA4
:1014C0000150EF160001000CD76AD66A05C307F376
:1014D00003010751065D2CE3036A0751E00FE96E33
:1014E000000E0320EA6EEFCF08F3D8900835036AA8
:1014F000000157EC00F00900F5CF03F00301096F7C
:1015000003C00AF30B6F010E0C6F0F0E0E6F890EE6
:101510000D6F0001B8DF09C30BF303010C6B0F0E55
:101520000E6F920E0D6F0001AEDF0301072BD1D7B6
:1015300005C307F30751065D4CE3036A0751E00F4B
:10154000E96E000E0320EA6EEFCF08F3D650096F64
:10155000D7CF0AF30851180DF3500C6B0B6F160E12
:101560000B25016E000E0C21036E0150200FE96E59
:10157000000E0320EA6EECCF03F0ED52EFCF01F046
:10158000D750035C04E3E2E10150095DDFE3D8904A
:101590000835036A000157EC00F00900F5CF03F0AD
:1015A0000301096F03C00AF30B6F0C6B0F0E0E6F74
:1015B000890E0D6F000167DF09C30BF303010C6B8C
:1015C0000F0E0E6F920E0D6F00015DDF0301072BF2
:1015D000B1D70001000C0301056B030E066F00017B
:1015E00073DF040E0301056F070E066F00016CDF49
:1015F000080E0301056F0B0E066F000165DF0C0E70
:101600000301056F0F0E066F00015EDF100E030170
:10161000056F130E066F000157DF140E0301056FEF
:10162000170E066F000150DF180E0301056F1B0E29
:10163000066F000149DF1C0E0301056F1F0E066FC8
:10164000000142DFEDEF1AF0030105910201EE53B4
:1016500002E003010581000E030105B1010E016ED8
:1016600000018EEF19F0030110910101EC5302E02B
:1016700003011081000E030110B1010E016E000183
:1016800043EF0BF0F0D70152FDE0EDC00EF3030184
:101690000E510D0803E10201EE0703010F6B01017A
:1016A000EC5103010F5D1AE2036A0F51ED0F016E59
:1016B000000E032203C011F3010E0F25036AED0F84
:1016C000E96E000E0320EA6EEFCF12F311C3EAFFBA
:1016D00001C0E9FF12C3EFFF0F2BE1D70101EC07B7
:1016E00003010EC301F0000181EF0BF003010D9126
:1016F0000201EC6B0101ED6B03010DB126D000017D
:10170000C1D701C00CF303010C510D0801E10D819B
:101710000C51190819E20201EC3D03D0030114D069
:101720000201036AEC51ED0FE96E010E0320EA6E2F
:101730000CC3EFFFEC2B036AEC51ED0FE96E010EC9
:101740000320EA6EEF6A0301D8D70001EFEF18F02B
:1017500003010D6B036A0351ED0FE96E010E0320C7
:10176000EA6EEFCF0CF30C51200820E00C531EE082
:10177000036A0D51EF0FE96E020E0320EA6E0CC3EF
:10178000EFFF010E0D25036AEF0FE96E020E032035
:10179000EA6EEF6A0D2B032B036A0351ED0FE96E1E
:1017A000010E0320EA6EEFCF0CF3DDD7032B0C53B1
:1017B00002E1010E046F0001000C03011DC3E9FFEB
:1017C0001EC3EAFFEFCF21F320C303F01FC3E9FFDD
:1017D00020C3EAFFEF50215D15E11EC303F01DC3D6
:1017E000E9FF03C0EAFFEF5203E1000E016E1FD0D4
:1017F0001EC303F01D511D2BD8B41E2B1F2BD8B4B4
:10180000202BDCD71EC303F01DC3E9FF1EC3EAFF74
:10181000EFCF21F320C303F01FC3E9FF20C3EAFF8A
:10182000EF50215D02E2FF0E01D0010E016E0001BA
:10183000000CEF5210E0EACF0DF3E9CF0CF3EF50BC
:101840009EA8FED7AD6E0DC3EAFF0CC3E9FFE92ADF
:10185000D8B4EA2AEED7000C006A016A03011351DA
:10186000D89014B100260032013214B300260032A1
:10187000013214B500260032013214B700260032BE
:10188000013214B900260032013214BB00260032A6
:10189000013214BD00260032013214BF002600328E
:1018A00001320001C2EF0CF00301116B0F6B0A0E45
:1018B000106F0E6B0C510D1103E1000E016EC3D0C1
:1018C0001151112B036A0C25E96E0D510320EA6EAC
:1018D000EFCF12F312512D080DE1010E0F6F1151D0
:1018E000112B036A0C25E96E0D510320EA6EEFCF30
:1018F00012F30DD012512B080AE11151112B036A7A
:101900000C25E96E0D510320EA6EEFCF12F3125150
:101910002F08D8B090D012513908D8A08CD01251CD
:10192000300821E1036A11510C25E96E0D510320A5
:10193000EA6EEF5078080AE0036A11510C25E96E4F
:101940000D510320EA6EEF5058080DE1100E106F94
:10195000112B1151112B036A0C25E96E0D51032037
:10196000EA6EEFCF12F310510A081DE112512F0851
:1019700019E21251390816E30A0E136F0EC314F35D
:1019800000016AD7300E0301125D01240E6F115160
:10199000112B036A0C25E96E0D510320EA6EEFCF7F
:1019A00012F3E4D748D01051100845E112516008F5
:1019B00006E212517A0803E31251DF0B01D01251F3
:1019C000126F12512F0803E21251390806E2125128
:1019D000400831E2125146082EE312512F080CE262
:1019E0001251390809E30E39136FF00E1317300E38
:1019F000125D13250E6F09D00E39136FF00E1317F9
:101A0000410E125D0A0F13250E6F1151112B036A3F
:101A10000C25E96E0D510320EA6EEFCF12F312513F
:101A2000600806E212517A0803E31251DF0B01D07D
:101A30001251126FC6D70F2D04D010510A0801E1C0
:101A40000E6D0EC301F0000142EF19F00900F552CE
:101A50000DE0F6CF0CF3F7CF0DF3F5509EA8FED7AF
:101A6000AD6E0CC3F6FF0DC3F7FFF0D74DEF19F0C5
:101A700003010F51016A0E5D03E20EC300F00CD0AA
:101A8000006A080E106F0E3700360F51005CD8B098
:101A9000006E0136102FF7D70001000C01500CC367
:101AA0000EF3640E03010F6F0001E2DF00C00CF3C0
:101AB0000150300E08E103010DA30ED00DB70CD07C
:101AC0000DB9200E04D003010D970D990D8101264B
:101AD00001509EA8FED7AD6E0CC30EF30A0E0F6F19
:101AE0000001C6DF00C00CF30150300E08E1030115
:101AF0000DB70BD00DA109D00DB9200E00010126A4
:101B000001509EA8FED7AD6E0301300E0C270C517C
:101B10009EA8FED7AD6E00015DEF19F0010E030126
:101B20001C6F036A1C51EF0FE96E020E0320EA6E70
:101B3000EFCF1BF31B5315E0010E1C5D036AEF0F83
:101B4000E96E020E0320EA6E1BC3EFFF1C2B036A33
:101B50001C51EF0FE96E020E0320EA6EEFCF1BF36C
:101B6000E9D7010E1C5D036AEF0FE96E020E032038
:101B7000EA6EEF6A000155EF14F0030124512619B3
:101B8000800B286F24AF05D0231F241F232BD8B42C
:101B9000242B26AF05D0251F261F252BD8B4262B96
:101BA00023512503F3CF01F0F4CF00F02603F350C7
:101BB000002624512503F3500020026E28AF05D0E3
:101BC000011E021E012AD8B4022A00015BEF0EF0AA
:101BD0000301216B1F6B0A0E206F1E6B1D6B1B51C7
:101BE0001C1104E1000E016E026EE8D02151212B80
:101BF000036A1B25E96E1C510320EA6EEFCF22F326
:101C000022512D080DE1010E1F6F2151212B036A76
:101C10001B25E96E1C510320EA6EEFCF22F30DD095
:101C200022512B080AE12151212B036A1B25E96E61
:101C30001C510320EA6EEFCF22F322512F08D8B0B7
:101C4000AFD022513908D8A0ABD02251300821E1C1
:101C5000036A21511B25E96E1C510320EA6EEF50E7
:101C600078080AE0036A21511B25E96E1C51032004
:101C7000EA6EEF5058080DE1100E206F212B215114
:101C8000212B036A1B25E96E1C510320EA6EEFCF5E
:101C900022F320510A0823E122512F081FE222518A
:101CA00039081CE3246B0A0E236F1EC326F31DC3E1
:101CB00025F3000162D7300E0301225D01241D6F60
:101CC000000E02201E6F2151212B036A1B25E96E95
:101CD0001C510320EA6EEFCF22F3DED761D02051F2
:101CE00010085EE12251600806E222517A0803E3FF
:101CF0002251DF0B01D02251226F22512F0803E223
:101D00002251390806E2225140084AE2225146088F
:101D100047E322512F0819E22251390816E31D35F5
:101D2000236F1E35246F2337243723372437233777
:101D30002437F00E2317300E225D2325016E000E8E
:101D4000242101C01DF31E6F16D01D35236F1E35D3
:101D5000246F233724372337243723372437F00ED3
:101D60002317410E225D0A0F2325016E000E242148
:101D700001C01DF31E6F2151212B036A1B25E96E43
:101D80001C510320EA6EEF50226F600806E22251D8
:101D90007A0803E32251DF0B01D02251226FADD725
:101DA00020510A0807E11F2D05D01D1F1E1F1D2BE6
:101DB000D8B41E2B1DC301F01EC302F000015DEF5D
:101DC00014F08E0E006E1EC301F01DC302F0036AF4
:101DD00001AE05D0011E021E022A01E1012A0152B4
:101DE00009E102C001F0026A080E005E015202E140
:101DF000006A0DD0D89001BE04D00236013600062C
:101E0000F9D703011EAF02D0000101D0019E0001ED
:101E10000AEF15F003011D51D8B4A5D0296F215147
:101E2000D8B4A1D0295F05E37F0E2927D8B09BD075
:101E300006D0810E295FD8A096D0D8B494D029C3FB
:101E400000F0016A026A036A286B1EC327F3278F1A
:101E50001FC326F320C325F3190E296F2451255FD4
:101E60000DE2010E265F0AE2275F08E2285F06E224
:101E7000282B272B262B2451252728D02351265FBA
:101E800012E2010E275F0FE2285F0DE2282B272BBD
:101E9000235126272451252719E3262B17E1272B29
:101EA00015E1282B13D022518009275F0EE2010E85
:101EB000285F0BE2282B2251800927272351262750
:101EC000E9E3272BE7E1282BE5D70380292F01D071
:101ED0000BD0D8902537263727372837D8900336A8
:101EE000023601362A37BAD72AA106D0D890013255
:101EF000023203322A3302D0000635E02ABF1ED058
:101F0000D89025372637273728372451255F07E211
:101F1000010E265F04E2275F02E2285F1AE32351E5
:101F2000265F05E2010E275F02E2285F12E32251DD
:101F30008009275F03E2010E285F0BE3032A09E112
:101F4000022A07E1012A05E1002A0DE001320232EE
:101F500003321EC329F32251291B29AF02D0018E5F
:101F600006D0019E04D0006A016A026A036A000179
:101F70001EEF15F0800ED8A202D003015E1B0301F4
:101F8000636B646B5AC362F35E51621B5951D8B4E0
:101F9000DFD0616F006E5D51D8B4E3D0615FD8B41B
:101FA00083D03EE35EC367F3678F5FC366F360C3AE
:101FB00065F3646BD8906733663365336433612FA0
:101FC000F8D762AF03D06381E0D0639161916389F8
:101FD000030EEA6E5C0EE96EEBD0639962BF0AD025
:101FE00061A113D06733663365336433002AD8B4F4
:101FF000C7D00BD067BF0CD0D89064376537663731
:1020000067370006D8B4BCD0F5D7638D6DD0639D1B
:102010005AC362F35AAF02D0678FABD0679FA9D083
:102020005DC361F35DC300F05951615F5AC367F34B
:10203000678F5BC366F35CC365F3646BD8906733EB
:10204000663365336433612FF8D762AF03D063839F
:102050009CD063936191638B030EEA6E600EE96E10
:10206000A7D0639B62BF0AD061A113D067336633E8
:1020700065336433002AD8B483D00BD067BF0CD04B
:10208000D89064376537663767370006D8B478D09C
:10209000F5D7638F29D0639F5EC362F35EAF02D032
:1020A000678F67D0679F65D05EC367F3678F5FC335
:1020B00066F360C365F362AF04D0679F638565D044
:1020C0006395646B6191030EEA6E5C0EE96E70D0ED
:1020D00062BF1CD05AC362F361A106D06733663376
:1020E00065336433002A4CE064AF0BD0652B09E103
:1020F000662B07E1672B05E1673366336533002AFA
:102100003FE063BD84D763BFC6D71CD0800E671B7A
:1021100067AF04D03AD05EC362F30AD05AC362F309
:10212000675306E1665304E1655302E1006A21D07A
:1021300067BF08D0D8906437653766376737002E99
:10214000F7D71ED062AF02D0678F13D0679F11D030
:102150005DC300F05EC367F35FC366F360C365F3FE
:1021600008D059C300F05AC367F35BC366F35CC37E
:1021700065F367C301F066C302F065C303F034D0B2
:10218000006A016A026A036A2FD0646B651F661FCA
:10219000671F641F642B05E1652B03E1662B01E1DA
:1021A000672B63B112D763B354D763B589D7B3D75D
:1021B000EF50652705E3662B03E1672BD8B46181F7
:1021C000ED52EF50662703E3672BD8B46181ED52DF
:1021D000EF50EFBE01D0800A6727D8B0618163B9A4
:1021E000FCD663BB3ED774D70001000C56C35DF329
:1021F00003015A515D1B5DAF05D0D894D89056BFEE
:10220000D8802FD056C35DF359C35EF355515E5F3E
:1022100006E05DAF26D0D850010AD86E22D05AC34E
:102220005EF356515E5F06E05DAF1BD0D850010AE9
:10223000D86E17D05BC35EF357515E5F06E05DAFAB
:1022400010D0D850010AD86E0CD05CC35EF3585140
:102250005E5F06E05DAF05D0D850010AD86E01D0B0
:10226000D89000012AEF12F003015951D8B471D06F
:10227000006E5D51D8B46DD0002604E3810E0026B7
:1022800068E204D07F0E005E64E363E05AC361F34A
:102290005E51611B5A8F5E8F5C516003F4CF63F314
:1022A0005B515F03F4CF03F0F3CF62F36003F350AD
:1022B0006327F4506223000E03225C515F03F35046
:1022C0006327F4506223000E026A032202225A514D
:1022D0006003F3506227F4500322000E02225A5189
:1022E0005F03F3500326F4500222000E016A01221C
:1022F0005C515E03F3506227F4500322000E022269
:1023000001225B515E03F3500326F4500222000EBB
:1023100001225A515E03F3500226F4500122002A92
:1023200001BE05D062370336023601360006000EC4
:1023300062AF0AD0032A02220122015005E10250B5
:1023400003E1035001E1002A61BF018E61AF019EEC
:1023500004D0006A016A026A036A0001000C8E0E52
:10236000006E03015551005E56C302F057C301F0E1
:10237000028E005209E0D890025202E1015204E0BC
:1023800002320132002EF7D756AF05D0011E021ED1
:10239000012AD8B4022A0001000C8E0E006E5AC326
:1023A00001F059C302F0036A015209E102C001F0D1
:1023B000026A080E005E015202E1006A08D0D8905D
:1023C00001BE04D0023601360006F9D7019E000C8A
:1023D0000301366B356B346B7F0E336F7E0E3D6FB2
:1023E000800E3E6F3F6B406B7A0E416F2A0E426F3C
:1023F000AA0E436FAB0E446F750E456FB60E466F57
:102400000B0E476F610E486F6F0E496F500E4A6F8B
:102410000D0E4B6F010E4C6F690E4D6F930E4E6F8C
:10242000F20E4F6F7E0E506F620E516F0F0E526F95
:10243000760E536FAE0E546F2AC358F329C357F369
:1024400028C356F327C355F35C6B5B6B5A6B596B10
:102450000001CCD604E303012851800A286F2AC367
:102460005CF329C35BF328C35AF327C359F3830EE4
:102470000301606FF90E5F6F220E5E6F7E0E5D6F5F
:102480000001F2DE03C058F302C057F301C056F357
:1024900000C055F364DF01C037F32AC35CF329C3DE
:1024A0005BF328C35AF327C359F3830E0301606F0C
:1024B000F90E5F6F220E5E6F7E0E5D6F0001D4DE3F
:1024C00000C055F301C056F302C057F303C058F3E0
:1024D00003015A6B37C359F300015FDFD88258C339
:1024E0005CF357C35BF356C35AF355C359F303C0A8
:1024F00060F302C05FF301C05EF300C05DF33ADD3C
:1025000003C03CF302C03BF301C03AF300C039F30F
:10251000030E03013717375303E0375102081CE15C
:102520003CC35CF33BC35BF33AC35AF339C359F37F
:10253000DB0E606F0F0E5F6F490E5E6F7F0E5D6F7B
:10254000000192DE03C032F302C031F301C030F368
:1025500000C02FF36BD00301372D35D0D8825C6BD0
:102560005B6B5A6B7F0E596F3CC360F33BC35FF3E9
:102570003AC35EF339C35DF30001FCDC00C055F3E0
:1025800001C056F302C057F303C058F303C05CF315
:1025900002C05BF301C05AF300C059F3DB0E030124
:1025A000606F0F0E5F6F490E5E6F7F0E5D6F0001F3
:1025B0005BDE03C032F302C031F301C030F300C070
:1025C0002FF334D00301D8823CC35CF33BC35BF3ED
:1025D0003AC35AF339C359F3606B5F6B5E6B7F0E7E
:1025E0005D6F0001C7DC00C055F301C056F302C0A7
:1025F00057F303C058F303C05CF302C05BF301C0A0
:102600005AF300C059F3DB0E0301606F0F0E5F6FCA
:10261000490E5E6F7F0E5D6F000126DE03C032F350
:1026200002C031F301C030F300C02FF303012E6B61
:102630002D6B2C6B7F0E2B6F32C35CF331C35BF3BE
:1026400030C35AF32FC359F332C360F331C35FF37E
:1026500030C35EF32FC35DF3000106DE03C032F327
:1026600002C031F301C030F300C02FF30301386B17
:102670003851050863E336C35CF335C35BF334C3F9
:102680005AF333C359F332C360F331C35FF330C33A
:102690005EF32FC35DF30001E7DD03C036F302C034
:1026A00035F301C034F300C033F303013851040D96
:1026B000F350036A3D0FE96E030E0320EA6EEFCF7D
:1026C00055F3ECCF56F3ECCF57F3ECCF58F358C398
:1026D0005CF357C35BF356C35AF355C359F336C380
:1026E00060F335C35FF334C35EF333C35DF30001BE
:1026F000BBDDEACF56F3E9CF55F3D8922EC35CF396
:102700002DC35BF32CC35AF32BC359F303C060F3FF
:1027100002C05FF301C05EF300C05DF32BDC56C363
:10272000EAFF55C3E9FF03C02EF302C02DF301C039
:102730002CF300C02BF30301382B9AD73751020832
:1027400002E0372D03D02C51800A2C6F2BC300F0F0
:102750002CC301F02DC302F02EC303F00001D7EF0C
:1027600013F0D88222C35CF321C35BF320C35AF376
:102770001FC359F3DB0E0301606F0F0E5F6F490E2D
:102780005E6F7F0E5D6F0001BAEC0FF000C023F3A7
:1027900001C024F302C025F303C026F303C02AF3CB
:1027A00002C029F301C028F300C027F311D62FEF90
:1027B00015F00301306B2F6B2C512E5D0AE303E102
:1027C0002D512B5D06E22B512D5D2F6F2C512E5973
:1027D000306F2E512C5D0AE303E12B512D5D06E293
:1027E0002D512B5D2F6F2E512C59306F2FC301F0BF
:1027F00030C302F0000138EF14F0016A026A006A87
:10280000036A0301305102E12F5118E0100E316FBD
:10281000D8902D372E37003603363051035C02E155
:102820002F51005C07E32F51005ED8A00306305102
:10283000035ED88001360236312FEAD7000145EF1A
:1028400014F003012631286F2531276F28332733F1
:1028500028332733283327330F0E281722C32CF3AE
:1028600021C32BF324C32EF323C32DF30001A1D7DF
:1028700002C02CF301C02BF302C02EF301C02DF3D4
:1028800028C330F327C32FF3B8D702C02AF301C0FF
:1028900029F3030129C301F02AC302F0000113EF59
:1028A00016F0EFC20DF38EEF0DF0020E03011C6F58
:1028B000EF0E1B6F0001E8EF0DF002C00FF301C037
:1028C0000EF303010D51230A000127E0770A30E0DF
:1028D000040A34E0190AD8B4B0D1640AD8B4CED10D
:1028E000060AD8B4FDD1780AD8B42CD2100AD8B4CC
:1028F00042D2050AD8B469D20B0AD8B490D2020ADF
:10290000D8B4B7D2070AD8B4E2D21A0AD8B40DD3D1
:10291000730AD8B442D3EBEF18F0010E03010E5D39
:10292000006E000E0F5900C0E8F00001EBEF18F048
:102930000FC3EAF00EC3E9F0EBEF18F0E851180D01
:10294000F35003011C6B1B6F200E1B25E96E000E5C
:102950001C21EA6E010EEF6E0001EC2DF1D0E85162
:10296000180DF35003011C6B1B6F0E0E1B25016E1F
:10297000000E1C21036E0150200FE96E000E032093
:10298000EA6EECCF1CF3ED52EFCF1BF30001E851E0
:10299000180DF35003011E6B1D6F0C0E1D25016EEB
:1029A000000E1E21036E0150200FE96E000E032061
:1029B000EA6EECCF03F0ED52EF501B5F03501C5B4F
:1029C000D8901C331B330001E851180DF35003015C
:1029D0001E6B1D6F0C0E1D25016E000E1E21036E59
:1029E0000150200FE96E000E0320EA6EECCF03F0D9
:1029F000ED52EF501B25146F03501C21156F0FC3B0
:102A00001CF30EC31BF30FC31EF30EC31DF3000113
:102A1000E1EF0EF003C020F302C01FF301C01EF36C
:102A200000C01DF3E10E0301246F2E0E236F650E0F
:102A3000226F840E216F00010AEF0FF000C01BF31C
:102A400001C01CF302C01DF303C01EF303C022F338
:102A500002C021F301C020F300C01FF382D603C0DF
:102A600013F302C012F301C011F300C010F3E851D8
:102A7000180DF35003011C6B1B6F0E0E1B25016E0E
:102A8000000E1C21036E0150200FE96E000E032082
:102A9000EA6EECCF1CF3ED52EFCF1BF314511B5D2C
:102AA000006E15511C59036E00C059F35A6F000196
:102AB00074DC13C35CF312C35BF311C35AF310C38A
:102AC00059F303C060F302C05FF301C05EF300C0BE
:102AD0005DF334EC11F000C01BF301C01CF302C025
:102AE0001DF303C01EF315C35AF314C359F355DC89
:102AF000EACF20F3E9CF1FF3D8921EC35CF31DC3C6
:102B00005BF31CC35AF31BC359F303C060F302C049
:102B10005FF301C05EF300C05DF3BAEC0FF020C3B9
:102B2000EAFF1FC3E9FF03C058F302C057F301C017
:102B300056F300C055F313DC02C00FF301C00EF3CF
:102B4000E851180DF35003011C6B1B6F030E1B257E
:102B5000016E000E1C21036E0150200FE96E000E65
:102B60000320EA6E0FC3ECFFED520EC3EFFFE8C087
:102B70001BF300016FEC04F0E95302E1EA535CE05F
:102B8000E851180DF35003011C6B1B6F050E1B253C
:102B9000016E000E1C21036E0150200F016E000E0D
:102BA000032201C01BF303C01CF30001E851180D00
:102BB000F35003011E6B1D6F010E1D25016E000EEB
:102BC0001E21036E0150200FE96E000E0320EA6EF5
:102BD000ECCF1EF3ED52EFCF1DF30001E851180DBD
:102BE000F3500301206B1F6F030E1F25016E000EB3
:102BF0002021036E0150200FE96E000E0320EA6EC3
:102C0000ECCF20F3ED52EFCF1FF31EC322F31DC311
:102C100021F320C324F31FC323F3EAC026F3E9C042
:102C200025F300010ED61CC3EAFF1BC3E9FF02C057
:102C3000ECFFED5201C0EFFFCED2E851180DF3507A
:102C400003011C6B1B6F030E1B25016E000E1C2164
:102C5000036E0150200FE96E000E0320EA6E0E5144
:102C6000EF24016E0F51EC20ED5201C0EFFFEC6E2E
:102C7000E8C01BF300016FEC04F0ADD2E851180D71
:102C8000F35003011C6B1B6F0C0E1B25016E000E15
:102C90001C21036E0150200FE96E000E0320EA6E26
:102CA0000FC3ECFFED520EC3EFFF0001E851180D0A
:102CB000F35003011C6B1B6F120E1B25016E000EDF
:102CC0001C21036E0150200FE96E000E0320EA6EF6
:102CD000010EEF6EE8C01BF300016FEC04F07BD235
:102CE000E851180DF35003011C6B1B6F0E0E1B25D2
:102CF000016E000E1C21036E0150200FE96E000EC4
:102D00000320EA6E0FC3ECFFED520EC3EFFF00018C
:102D1000E851180DF35003011C6B1B6F130E1B259C
:102D2000016E000E1C21036E0150200FE96E000E93
:102D30000320EA6E010EEF6EE8C01BF300016FEC9A
:102D400004F049D2E851180DF35003011C6B1B6FBE
:102D5000050E1B25016E000E1C21036E0150200F75
:102D6000E96E000E0320EA6E0FC3ECFFED520EC3B6
:102D7000EFFF000130D2E851180DF35003011C6B36
:102D80001B6F200E1B25E96E000E1C21EA6E020E41
:102D9000EF6E0001E851180DF35003011C6B1B6F1F
:102DA000140E1B25016E000E1C21036E0150200F16
:102DB000E96E000E0320EA6E010E0E5D006E000E3D
:102DC0000F5900C0EFFF000106D2E851180DF35073
:102DD00003011C6B1B6F200E1B25E96E000E1C21CE
:102DE000EA6E040EEF6E0001E851180DF350030176
:102DF0001C6B1B6F140E1B25016E000E1C21036E35
:102E00000150200FE96E000E0320EA6E010E0E5DE8
:102E1000006E000E0F5900C0EFFF0001DCD1E85139
:102E2000180DF35003011C6B1B6F200E1B25E96E60
:102E3000000E1C21EA6E030EEF6E0001E851180D22
:102E4000F35003011C6B1B6F140E1B25016E000E4B
:102E50001C21036E0150200FE96E000E0320EA6E64
:102E6000010E0E5D006E000E0F5900C0EFFF000155
:102E7000B2D1E851180DF35003011C6B1B6F080E03
:102E80001B25016E000E1C21036E0150200FE96E00
:102E9000000E0320EA6E0FC3ECFFED520EC3EFFFEE
:102EA0000001E851180DF35003011C6B1B6F100E4D
:102EB0001B25016E000E1C21036E0150200FE96ED0
:102EC000000E0320EA6E010EEF6E000184D1E8517E
:102ED000180DF35003011C6B1B6F0A0E1B25016EAE
:102EE000000E1C21036E0150200FE96E000E03201E
:102EF000EA6E0FC3ECFFED520EC3EFFF0001E85185
:102F0000180DF35003011C6B1B6F110E1B25016E76
:102F1000000E1C21036E0150200FE96E000E0320ED
:102F2000EA6E010EEF6E000156D1E851180DF35014
:102F300003011C6B1B6F030E1B25016E000E1C2171
:102F4000036E0150200F016E000E032201C01BF31F
:102F500003C01CF30001E851180DF35003011E6B70
:102F60001D6F0A0E1D25016E000E1E21036E0150FD
:102F7000200FE96E000E0320EA6EECCF03F0ED5255
:102F8000EFCF1DF31CC3EAFF1BC3E9FF03C0ECFF37
:102F9000ED521DC3EFFF00011ED1440E0301166F59
:102FA0004F0E176F4E0E186F196B020E1E6FEF0E3D
:102FB0001D6F030E206F160E1F6F0001DDEC0BF06E
:102FC000015214E1E851180DF35003011C6B1B6F03
:102FD000070E1B25016E000E1C21036E0150200FF1
:102FE000E96E000E0320EA6E010EEF6E4F0E030134
:102FF000166F4E0E176F186B020E1E6FEF0E1D6FC1
:10300000030E206F160E1F6F0001DDEC0BF0015256
:1030100001E1EB6B4F0E0301166F460E176F186F31
:10302000196B020E1E6FEF0E1D6F030E206F160E32
:103030001F6F0001DDEC0BF0015217E1010EEB6F89
:1030400003010C6B0C51070810E30001E851180D47
:10305000F35003011C6B1B6F200E1B25E96E000E45
:103060001C21EA6EEF6A0C2BEDD7480E0301166F98
:103070004F0E176F4D0E186F450E196F1A6B020E1B
:103080001E6FEF0E1D6F030E206F160E1F6F0001D7
:10309000DDEC0BF00152D8A486D0EB6B03010C6B76
:1030A0000C510708D8A07FD00001E851180DF3504B
:1030B00003011C6B1B6F200E1B25E96E000E1C21EB
:1030C000EA6E010EEF6E0001E851180DF350030196
:1030D0001C6B1B6F010E1B25016E000E1C21036E65
:1030E0000150200F016E000E032201C01BF303C02C
:1030F0001CF30001E851180DF35003011E6B1D6F06
:103100000A0E1D25016E000E1E21036E0150200FB8
:10311000E96E000E0320EA6EECCF03F0ED52EFCF24
:103120001DF31CC3EAFF1BC3E9FF03C0ECFFED5214
:103130001DC3EFFF0001E851180DF35003011C6B94
:103140001B6F030E1B25016E000E1C21036E015028
:10315000200F016E000E032201C01BF303C01CF3FD
:103160000001E851180DF35003011E6B1D6F0A0E8C
:103170001D25016E000E1E21036E0150200FE96E09
:10318000000E0320EA6EECCF03F0ED52EFCF1DF3FB
:103190001CC3EAFF1BC3E9FF03C0ECFFED521DC3D4
:1031A000EFFF0C2B7DD7530E0301166F490E176FDF
:1031B0004E0E186F196B020E1E6FEF0E1D6F030E71
:1031C000206F160E1F6F0001DDEC0BF0015202E1C3
:1031D000010EEC6F00D087EF19F076EF0BF00301D2
:1031E000036B0001EC6B0301046B0001A8EC0BF016
:1031F000400E0301066F530E076F086F580E096FDC
:10320000380E0A6F0B6B020E1E6FEF0E1D6F030E52
:10321000206F060E1F6F0001DDEC0BF0015212E073
:10322000010EEA6EED0EE96E19EC0CF00D0E9EA883
:10323000FED7AD6E0A0E9EA8FED7AD6E010E03013D
:10324000046F0001A8EC0BF0240E0301066F310E91
:10325000076F086B020E1E6FEF0E1D6F030E206FBF
:10326000060E1F6F0001DDEC0BF0015245E0300E41
:103270000201EF6F020E03010D6FEF0E0C6F0001E4
:1032800054EF0CF0010E015C0301056F980EF66E11
:10329000010EF76E000126EF0DF0200E9EA8FED75E
:1032A000AD6E240E9EA8FED7AD6E05C30CF31B0EAB
:1032B00003010D6F00014EEF0DF0690E9EA8FED7C1
:1032C000AD6E030104530FE10001A8EC0BF0020EF8
:1032D000EA6EEF0EE96E19EC0CF0200E9EA8FED7F8
:1032E000AD6EEFD703010D0E9EA8FED7AD6E0A0E90
:1032F0009EA8FED7AD6E0001EA6BE96BE86B030197
:10330000045307E10001A8EC0BF051EF14F0F7D7DC
:103310000301000191EF19F024EF0BF0012C01D013
:103320005CD7EEEF1AF00301056B05510708D8A032
:1033300016D10551180DF350076B066F100E0625B8
:10334000016E000E0721036E0150200FE96E000E82
:103350000320EA6EEF2C32D00551180DF350076BA5
:10336000066F080E0625016E000E0721036E015040
:10337000200FE96E000E0320EA6EECCF07F3ED524A
:10338000EFCF06F305C308F307C30AF306C309F337
:10339000000110EC01F003010551180DF350076B0B
:1033A000066F100E0625016E000E0721036E0150F8
:1033B000200FE96E000E0320EA6EEF6A0551180D2A
:1033C000F350076B066F110E0625016E000E0721E4
:1033D000036E0150200FE96E000E0320EA6EEF2C01
:1033E00032D00551180DF350076B066F0A0E0625F3
:1033F000016E000E0721036E0150200FE96E000ED2
:103400000320EA6EECCF07F3ED52EFCF06F305C3CE
:1034100008F307C30AF306C309F30001CFEC00F079
:1034200003010551180DF350076B066F110E0625A9
:10343000016E000E0721036E0150200FE96E000E91
:103440000320EA6EEF6A0551180DF350076B066F03
:10345000120E0625016E000E0721036E0150200F8B
:10346000E96E000E0320EA6EEF2C32D00551180DE4
:10347000F350076B066F0C0E0625016E000E072138
:10348000036E0150200FE96E000E0320EA6EECCFB0
:1034900007F3ED52EFCF06F305C308F307C30AF3B2
:1034A00006C309F3000151EC01F003010551180DA9
:1034B000F350076B066F120E0625016E000E0721F2
:1034C000036E0150200FE96E000E0320EA6EEF6AD2
:1034D0000551180DF350076B066F130E0625016E8C
:1034E000000E0721036E0150200FE96E000E03202D
:1034F000EA6EEF2C32D00551180DF350076B066FB2
:103500000E0E0625016E000E0721036E0150200FDE
:10351000E96E000E0320EA6EECCF07F3ED52EFCF19
:1035200006F305C308F307C30AF306C309F3000152
:1035300092EC01F003010551180DF350076B066F73
:10354000130E0625016E000E0721036E0150200F99
:10355000E96E000E0320EA6EEF6A052BE6D6000145
:10356000EFEF1AF0F86AD09E078EEA6AE96A700EE9
:10357000D36E400E9B6ED350B886820EAF6E060E91
:10358000B06EA60EAC6E900EAB6E939E8A8E000E41
:103590007E6EC198C19A7F50E00B7F6E799A7998C0
:1035A0007A6A7B6A1A6A1B6AB5EF02F0EB5315E17F
:1035B0005CEF07F0B5EF09F0CE50CFCF03F0030179
:1035C000056FCF50066F7C08D8A002D00001F4D759
:1035D000CF6ACE6A0001EBEF0AF09ED6A4D6E6D7FA
:0235E0000300E6
:020000040030CA
:0E00000000C8190E000D81000FC00FE00F4068
:00000001FF
;PIC18F26K20
;CRC=236C  CREATED="03-Oct-11 21:08"
