:0400000000EF1EF0FF
:08000800046ED8CF05F0E0CF33
:1000100006F00001E9CF0CF0EACF07F0E1CF08F0DD
:10002000E2CF09F0D9CF0AF0DACF0BF0F3CF12F01C
:10003000F4CF13F0FACF14F0F5CF15F0F6CF16F099
:10004000F7CF17F000C00EF001C00FF002C010F0A3
:1000500003C011F09DAA30EF00F09EBAAAEF00F0A5
:100060000EC000F00FC001F010C002F011C003F08C
:100070000CC0E9FF07C0EAFF078E08C0E1FF09C016
:10008000E2FF0AC0D9FF0BC0DAFF12C0F3FF13C0B2
:10009000F4FF14C0FAFF15C0F5FF16C0F6FF17C035
:1000A000F7FF045006C0E0FF05C0D8FF1000F76A54
:1000B000BE0FF66E000EF7220900F5501200007C0C
:1000C000017C027C037C047C057C077C067C107C24
:1000D000117C127C137C147C087C097C0A7CF76AF6
:1000E000EE0FF66E000EF7220900F5501200405395
:1000F0005358313600000201B46B0301B66BB59161
:100100000201B56B0001000C040EEA6E330EE96EBD
:10011000EF500EE0140E016E006A002EFED7012E85
:10012000FBD7BF0E006E002EFED700D0EF2EF2D709
:10013000000C8B9A949A640E0401336F0001E4DF83
:100140008B8A949A640E0401336F0001DDDFF1D7CE
:10015000DBEF00F09EAA31D09EAAFED7AECF32F4DC
:1001600004010201B43D01D01DD0040132510D083B
:1001700003E10301B62B040132510A0814E0036ABB
:100180000201B451B50FE96E010E0320EA6E32C4CC
:10019000EFFFB42B036AB451B50FE96E010E0320D3
:1001A000EA6EEF6A04010201B43D05D00301B58196
:1001B0000001A1DFBED70001CDD79E9A30EF00F03D
:1001C0004053535831360000D8900301D035200FEA
:1001D000D36FD46BD1C3D5F3D2C3D6F3D4C3AAFFA4
:1001E000D3C3A9FFD5C3A8FFA69CA69EA684F250A0
:1001F000006EF29E0F01550EA76EAA0EA76EA68284
:10020000A6B2FED7A6940050F212010E0301D32528
:10021000D76F000ED421D86FD8C3AAFFD7C3A9FFC8
:10022000D6C3A8FFA69CA69EA684F250006EF29E9E
:100230000F01550EA76EAA0EA76EA682A6B2FED714
:10024000A6940050F2120001000CD8900301D035A2
:10025000400FD36FD46BD1C3D5F3D2C3D6F3D4C37D
:10026000AAFFD3C3A9FFD5C3A8FFA69CA69EA684B8
:10027000F250006EF29E0F01550EA76EAA0EA76EE9
:10028000A682A6B2FED7A6940050F212010E030178
:10029000D325D76F000ED421D86FD8C3AAFFD7C3F8
:1002A000A9FFD6C3A8FFA69CA69EA684F250006E06
:1002B000F29E0F01550EA76EAA0EA76EA682A6B2D9
:1002C000FED7A6940050F2120001000CD890030152
:1002D000D035600FD36FD46BD1C3D5F3D2C3D6F36F
:1002E000D4C3AAFFD3C3A9FFD5C3A8FFA69CA69ECB
:1002F000A684F250006EF29E0F01550EA76EAA0E54
:10030000A76EA682A6B2FED7A6940050F212010EE6
:100310000301D325D76F000ED421D86FD8C3AAFF0D
:10032000D7C3A9FFD6C3A8FFA69CA69EA684F25059
:10033000006EF29E0F01550EA76EAA0EA76EA68242
:10034000A6B2FED7A6940050F2120001000CD8907D
:100350000301D035800FD36FD46BD1C3D5F3D2C393
:10036000D6F3D4C3AAFFD3C3A9FFD5C3A8FFA69CC5
:10037000A69EA684F250006EF29E0F01550EA76E47
:10038000AA0EA76EA682A6B2FED7A6940050F212BD
:10039000010E0301D325D76F000ED421D86FD8C327
:1003A000AAFFD7C3A9FFD6C3A8FFA69CA69EA68472
:1003B000F250006EF29E0F01550EA76EAA0EA76EA8
:1003C000A682A6B2FED7A6940050F2120001000C3D
:1003D000AA6AA96A010EA86EA69CA69EA684F250DF
:1003E000006EF29E0F01550EA76EAA0EA76EA68292
:1003F000A6B2FED7A6940050F2120301CE6BCE51E6
:100400000F0822E3CEC3D0F3D26BD16B0001DCDE48
:10041000CEC3D0F30301D26BD16B000116DFCEC384
:10042000D0F3030E0301D26F200ED16F00014EDF17
:10043000CEC3D0F3080E0301D26F980ED16F000126
:1004400086DF0301CE2BDBD7000137EF02F0F2CFBE
:10045000CEF3F29EAA6AA96AA69CA69EA680A85080
:100460000301CEBFF28EFF0803E10001B1D7030103
:100470000001F6EF02F00301E851EA03F3CF01F0C7
:10048000F4CF00F0EB03F3500026E951EA03F350F8
:100490000020026E0001000CD8900301D035400FFF
:1004A000D16FD26BF2CFD3F3F29ED2C3AAFFD1C3E6
:1004B000A9FFA69CA69EA680A850D3BFF28ED46F9B
:1004C000010ED125D56F000ED221D66FF2CFD7F312
:1004D000F29ED6C3AAFFD5C3A9FFA69CA69EA6805E
:1004E000A850D7BFF28ED66FE96BD6C3E8F3010EE2
:1004F000EB6FEA6B0001BFDF02C003F001500301A4
:10050000D425016E000E03220150016E0350026ECD
:10051000000194EF03F0D8900301D035200FD16F84
:10052000D26BF2CFD3F3F29ED2C3AAFFD1C3A9FFFD
:10053000A69CA69EA680A850D3BFF28ED46F010EB3
:10054000D125D56F000ED221D66FF2CFD7F3F29E10
:10055000D6C3AAFFD5C3A9FFA69CA69EA680A85075
:10056000D7BFF28ED66FE96BD6C3E8F3010EEB6FFF
:10057000EA6B000180DF02C003F001500301D425C3
:10058000016E000E03220150016E0350026E000145
:10059000BCEF03F0000E7E6EC198C19A7F50E00B55
:1005A0007F6EC050C00BC06EC09EC280C69A949A27
:1005B00094889496010EC66E000EC76ED190830E7D
:1005C000D56EB50ECD6E000ECA6E000ECB6EB16A42
:1005D0009484BD6AB76AB66A010EB96E799A799841
:1005E000040E7A6E7B6E8B8A949A31D70301CD6BA1
:1005F000CD510F08D8A0DFD1E96BCDC3E8F3EB6B89
:10060000180EEA6F000137DF200E03010124E96EA6
:10061000000E0220EA6EEF6AE96BCDC3E8F3EB6BE4
:10062000180EEA6F000127DF01C0CEF3010E0301AF
:100630000124016E000E0220036E0150200FE96EAE
:10064000000E0320EA6E050EEC6EED52DC0EEF6E2E
:10065000E96BCDC3E8F3EB6B180EEA6F00010BDF1B
:1006600001C0CEF3030E03010124016E000E02202F
:10067000036E0150200FE96E000E0320EA6E050E96
:10068000EC6EED52DC0EEF6EE96BCDC3E8F3EB6B75
:10069000180EEA6F0001EFDE01C0CEF3050E030174
:1006A0000124016E000E0220036E0150200FE96E3E
:1006B000000E0320EA6EEC6AED52EF6AE96BCDC3DF
:1006C000E8F3EB6B180EEA6F0001D5DE01C0CEF344
:1006D000070E03010124016E000E0220036E01507B
:1006E000200FE96E000E0320EA6EEF6AE96BCDC3BE
:1006F000E8F3EB6B180EEA6F0001BDDE01C0CEF32C
:10070000080E03010124016E000E0220036E015049
:10071000200F016E000E032201C0CEF303C0CFF301
:10072000CDC3D0F30001B8D6CFC3EAFFCEC3E9FFF3
:1007300002C0ECFFED5201C0EFFF0301E96BCDC336
:10074000E8F3EB6B180EEA6F000195DE01C0CEF303
:100750000A0E03010124016E000E0220036E0150F7
:10076000200F016E000E032201C0CEF303C0CFF3B1
:10077000CDC3D0F30001CFD6CFC3EAFFCEC3E9FF8C
:1007800002C0ECFFED5201C0EFFF0301E96BCDC3E6
:10079000E8F3EB6B180EEA6F00016DDE01C0CEF3DB
:1007A0000C0E03010124016E000E0220036E0150A5
:1007B000200FE96E000E0320EA6E030EEC6EED5280
:1007C000200EEF6EE96BCDC3E8F3EB6B180EEA6F0A
:1007D000000151DE01C0CEF30E0E03010124016EB3
:1007E000000E0220036E0150200FE96E000E032060
:1007F000EA6E080EEC6EED52980EEF6EE96BCDC30B
:10080000E8F3EB6B180EEA6F000135DE01C0CEF3A2
:10081000100E03010124016E000E0220036E015030
:10082000200FE96E000E0320EA6EEF6AE96BCDC37C
:10083000E8F3EB6B180EEA6F00011DDE01C0CEF38A
:10084000110E03010124016E000E0220036E0150FF
:10085000200FE96E000E0320EA6EEF6AE96BCDC34C
:10086000E8F3EB6B180EEA6F000105DE01C0CEF372
:10087000120E03010124016E000E0220036E0150CE
:10088000200FE96E000E0320EA6EEF6AE96BCDC31C
:10089000E8F3EB6B180EEA6F0001EDDD01C0CEF35B
:1008A000130E03010124016E000E0220036E01509D
:1008B000200FE96E000E0320EA6EEF6AE96BCDC3EC
:1008C000E8F3EB6B180EEA6F0001D5DD01C0CEF343
:1008D000140E03010124016E000E0220036E01506C
:1008E000200FE96E000E0320EA6EEF6AE96BCDC3BC
:1008F000E8F3EB6B180EEA6F0001BDDD01C0CEF32B
:10090000150E03010124016E000E0220036E01503A
:10091000200FE96E000E0320EA6EEF6AE96BCDC38B
:10092000E8F3EB6B180EEA6F0001A5DD01C0CEF312
:10093000160E03010124016E000E0220036E015009
:10094000200FE96E000E0320EA6EEC6AED52EF6AAA
:10095000E96BCDC3E8F3EB6B180EEA6F00018BDD9A
:1009600001C0CEF30A0E03010124016E000E022025
:10097000036E0150200FE96E000E0320EA6EECCFEB
:10098000CFF3ED52EFCFCEF3CE5302E1CF5311E0D0
:10099000E96BCDC3E8F3EB6B180EEA6F00016BDD7A
:1009A000200E03010124E96E000E0220EA6E010E02
:1009B000EF6ECD2B1DD6010E0101B36FB886400E30
:1009C000AF6E030EB06EA60EAC6E00017BEC00F0B5
:1009D0009D8AC00EF21224EF1EF00301E96BE4C3FE
:1009E000E8F3EB6B180EEA6F000145DD01C0E5F39B
:1009F000030E03010124016E000E0220036E01505C
:100A0000200FE96E000E0320EA6EECCFE6F3ED5204
:100A1000EFCFE5F3E96BE4C3E8F3EB6B180EEA6F95
:100A2000000129DD02C0E8F301C0E7F30C0E030169
:100A30000124016E000E0220036E0150200FE96EAA
:100A4000000E0320EA6EECCF03F0ED52EFCF01F081
:100A5000E651035C43E303E10150E55D3FE2E96BEE
:100A6000E4C3E8F3EB6B180EEA6F000104DD01C08C
:100A7000E5F3030E03010124016E000E0220036E54
:100A80000150200F016E000E032201C0E5F303C0E8
:100A9000E6F3E96BE4C3E8F3EB6B180EEA6F0001D1
:100AA000EADC01C0E7F30C0E03010124016E000E25
:100AB0000220036E0150200FE96E000E0320EA6E43
:100AC000ECCF03F0ED52EFCFE7F3E6C3EAFFE5C367
:100AD000E9FF03C0ECFFED52E7C3EFFFE96BE4C3AE
:100AE000E8F3EB6B180EEA6F0001C5DC01C0E5F31B
:100AF000030E03010124016E000E0220036E01505B
:100B0000200FE96E000E0320EA6EECCFE6F3ED5203
:100B1000EFCFE5F3E96BE4C3E8F3EB6B180EEA6F94
:100B20000001A9DC02C0E8F301C0E7F30E0E0301E7
:100B30000124016E000E0220036E0150200FE96EA9
:100B4000000E0320EA6EECCF03F0ED52EFCF01F080
:100B50000350E65D43E303E1E551015C3FE2E96BED
:100B6000E4C3E8F3EB6B180EEA6F000184DC01C00C
:100B7000E5F3030E03010124016E000E0220036E53
:100B80000150200F016E000E032201C0E5F303C0E7
:100B9000E6F3E96BE4C3E8F3EB6B180EEA6F0001D0
:100BA0006ADC01C0E7F30E0E03010124016E000EA2
:100BB0000220036E0150200FE96E000E0320EA6E42
:100BC000ECCF03F0ED52EFCFE7F3E6C3EAFFE5C366
:100BD000E9FF03C0ECFFED52E7C3EFFF0001000C9B
:100BE0000301E96BCEC3E8F3EB6B180EEA6F00016B
:100BF00042DC01C0CFF3050E03010124016E000E9B
:100C00000220036E0150200FE96E000E0320EA6EF1
:100C1000ECCFD0F3ED52EFCFCFF3CF5342E1D0532F
:100C200040E1E96BCEC3E8F3EB6B180EEA6F00010D
:100C300022DC01C0CFF3010E03010124016E000E7E
:100C40000220036E0150200F016E000E032201C02E
:100C5000CFF303C0D0F3E96BCEC3E8F3EB6B180E10
:100C6000EA6F000108DC01C0D1F3030E0301012487
:100C7000016E000E0220036E0150200FE96E000E7F
:100C80000320EA6EECCF03F0ED52EFCFD1F3D0C3E7
:100C9000EAFFCFC3E9FF03C0ECFFED52D1C3EFFF82
:100CA00053D2E96BCEC3E8F3EB6B180EEA6F000189
:100CB0003BEC02F001C0CFF3010E03010124016EF1
:100CC000000E0220036E0150200FE96E000E03207B
:100CD000EA6EECCFD0F3ED52EFCFCFF3E96BCEC39A
:100CE000E8F3EB6B180EEA6F00013BEC02F002C078
:100CF000D2F301C0D1F3030E03010124016E000EF3
:100D00000220036E0150200FE96E000E0320EA6EF0
:100D1000ECCF03F0ED52EFCF01F0D051035CD8A03F
:100D2000EAD004E10150CF5DD8B0E5D0E96BCEC385
:100D3000E8F3EB6B180EEA6F00013BEC02F001C028
:100D4000CFF3010E03010124016E000E0220036E99
:100D50000150200F016E000E032201C0CFF303C02B
:100D6000D0F3E96BCEC3E8F3EB6B180EEA6F00012A
:100D70003BEC02F001C0D1F3010E03010124016E2E
:100D8000000E0220036E0150200FE96E000E0320BA
:100D9000EA6EECCFD2F3ED52EFCFD1F3E96BCEC3D5
:100DA000E8F3EB6B180EEA6F00013BEC02F001C0B8
:100DB000D3F3050E03010124016E000E0220036E21
:100DC0000150200FE96E000E0320EA6EECCF03F015
:100DD000ED52EF50D125016ED2510322D0C3EAFF6C
:100DE000CFC3E9FF03C0ECFFED5201C0EFFFE96B99
:100DF000CEC3E8F3EB6B180EEA6F00013BEC02F098
:100E000001C0CFF3010E03010124016E000E022088
:100E1000036E0150200FE96E000E0320EA6EECCF46
:100E2000D0F3ED52EFCFCFF3E96BCEC3E8F3EB6B2A
:100E3000180EEA6F00013BEC02F002C0D2F301C0D1
:100E4000D1F3030E03010124016E000E0220036E94
:100E50000150200FE96E000E0320EA6EECCF03F084
:100E6000ED52EFCF01F00350D05D45E303E1CF51E8
:100E7000015C41E2E96BCEC3E8F3EB6B180EEA6F5D
:100E800000013BEC02F001C0CFF3010E030101248D
:100E9000016E000E0220036E0150200F016E000E45
:100EA000032201C0CFF303C0D0F3E96BCEC3E8F354
:100EB000EB6B180EEA6F00013BEC02F001C0D1F3BE
:100EC000030E03010124016E000E0220036E015087
:100ED000200FE96E000E0320EA6EECCF03F0ED5216
:100EE000EFCFD1F3D0C3EAFFCFC3E9FF03C0ECFFDC
:100EF000ED52D1C3EFFFE96BCEC3E8F3EB6B180EF5
:100F0000EA6F00013BEC02F001C0CFF3010E0301D8
:100F10000124016E000E0220036E0150200FE96EC5
:100F2000000E0320EA6EECCFD0F3ED52EFCFCFF3FB
:100F3000E96BCEC3E8F3EB6B180EEA6F00013BECF4
:100F400002F002C0D2F301C0D1F3030E0301012469
:100F5000016E000E0220036E0150200FE96E000E9C
:100F60000320EA6EECCF03F0ED52EFCF01F0035017
:100F7000D05DD8A0E9D004E1CF51015CD8B0E4D075
:100F8000E96BCEC3E8F3EB6B180EEA6F00013BECA4
:100F900002F001C0CFF3010E03010124016E000E27
:100FA0000220036E0150200F016E000E032201C0CB
:100FB000CFF303C0D0F3E96BCEC3E8F3EB6B180EAD
:100FC000EA6F00013BEC02F001C0D1F3010E030116
:100FD0000124016E000E0220036E0150200FE96E05
:100FE000000E0320EA6EECCFD2F3ED52EFCFD1F337
:100FF000E96BCEC3E8F3EB6B180EEA6F00013BEC34
:1010000002F001C0D3F3050E03010124016E000EAE
:101010000220036E0150200FE96E000E0320EA6EDD
:10102000ECCF03F0ED52EF50D15D006E0350D2597A
:10103000D0C3EAFFCFC3E9FFEC6EED5200C0EFFF73
:10104000E96BCEC3E8F3EB6B180EEA6F00013BECE3
:1010500002F001C0CFF3010E03010124016E000E66
:101060000220036E0150200FE96E000E0320EA6E8D
:10107000ECCFD0F3ED52EFCFCFF3E96BCEC3E8F373
:10108000EB6B180EEA6F00013BEC02F002C0D2F3EA
:1010900001C0D1F3030E03010124016E000E0220F2
:1010A000036E0150200FE96E000E0320EA6EECCFB4
:1010B00003F0ED52EFCF01F0D051035C45E303E1C3
:1010C0000150CF5D41E2E96BCEC3E8F3EB6B180E44
:1010D000EA6F00013BEC02F001C0CFF3010E030107
:1010E0000124016E000E0220036E0150200F016EDC
:1010F000000E032201C0CFF303C0D0F3E96BCEC3CF
:10110000E8F3EB6B180EEA6F00013BEC02F001C054
:10111000D1F3030E03010124016E000E0220036EC1
:101120000150200FE96E000E0320EA6EECCF03F0B1
:10113000ED52EFCFD1F3D0C3EAFFCFC3E9FF03C035
:10114000ECFFED52D1C3EFFF0001000C0301CD6BAA
:10115000CD510F08D8A0B2D2CDC3E4F300013DDCDD
:101160000301E96BCDC3E8F3EB6B180EEA6F0001E6
:101170003BEC02F002C0CFF301C0CEF3200E03011E
:101180000124E96E000E0220EA6EEF2C46D0CDC39A
:10119000CEF3000125DD0301E96BCDC3E8F3EB6B72
:1011A000180EEA6F00013BEC02F001C0CEF3160E00
:1011B00003010124016E000E0220036E0150200F76
:1011C000016E000E032201C0CEF303C0CFF3E96B22
:1011D000CDC3E8F3EB6B180EEA6F00013BEC02F0B5
:1011E00001C0D0F3010E03010124016E000E0220A4
:1011F000036E0150200FE96E000E0320EA6EECCF63
:1012000003F0ED52EFCFD0F3CFC3EAFFCEC3E9FF37
:1012100003C0ECFFED52D0C3EFFFE96BCDC3E8F3A1
:10122000EB6B180EEA6F00013BEC02F002C0CFF34B
:1012300001C0CEF3200E03010124E96E000E02204E
:10124000EA6EEF5002085BE1E96BCDC3E8F3EB6BAC
:10125000180EEA6F00013BEC02F001C0CEF3160E4F
:1012600003010124016E000E0220036E0150200FC5
:10127000016E000E032201C0CEF303C0CFF3E96B71
:10128000CDC3E8F3EB6B180EEA6F00013BEC02F004
:1012900002C0D1F301C0D0F3140E03010124016E8A
:1012A000000E0220036E0150200FE96E000E032095
:1012B000EA6EE96BEFCFE8F3EB6B180EEA6F000113
:1012C0003BEC02F001C0D0F3010E03010124016EDA
:1012D000000E0220036E0150200FE96E000E032065
:1012E000EA6EECCF03F0ED52EFCFD0F3CFC3EAFFBD
:1012F000CEC3E9FF03C0ECFFED52D0C3EFFFE96BB3
:10130000CDC3E8F3EB6B180EEA6F00013BEC02F083
:1013100002C0CFF301C0CEF3200E03010124E96E19
:10132000000E0220EA6EEF500308D8A40BD1E96B3F
:10133000CDC3E8F3EB6B180EEA6F00013BEC02F053
:1013400002C0CFF301C0CEF3140E03010124016EDD
:10135000000E0220036E0150200FE96E000E0320E4
:10136000EA6EE96BEFCFE8F3EB6B180EEA6F000162
:101370003BEC02F001C0CEF3010E03010124016E2B
:10138000000E0220036E0150200FE96E000E0320B4
:10139000EA6EECCFCFF3ED52EFCFCEF3CF5104088E
:1013A0006DE2FF0A03E1CE51DC0868E2E96BCDC3D0
:1013B000E8F3EB6B180EEA6F00013BEC02F001C0A2
:1013C000CEF3160E03010124016E000E0220036EFF
:1013D0000150200F016E000E032201C0CEF303C0A6
:1013E000CFF3E96BCDC3E8F3EB6B180EEA6F0001A6
:1013F0003BEC02F002C0D1F301C0D0F3140E0301A4
:101400000124016E000E0220036E0150200FE96ED0
:10141000000E0320EA6EE96BEFCFE8F3EB6B180EDA
:10142000EA6F00013BEC02F001C0D0F3010E0301B2
:101430000124016E000E0220036E0150200FE96EA0
:10144000000E0320EA6EECCFD1F3ED52EFCFD0F3D4
:10145000DC0ED05D006E050ED159036E0050FF0A00
:10146000DD0F006E050E0356CFC3EAFFCEC3E9FFC2
:1014700003C0ECFFED5200C0EFFF64D0E96BCDC3B9
:10148000E8F3EB6B180EEA6F00013BEC02F001C0D1
:10149000CEF3160E03010124016E000E0220036E2E
:1014A0000150200F016E000E032201C0CEF303C0D5
:1014B000CFF3E96BCDC3E8F3EB6B180EEA6F0001D5
:1014C0003BEC02F002C0D1F301C0D0F3140E0301D3
:1014D0000124016E000E0220036E0150200FE96E00
:1014E000000E0320EA6EE96BEFCFE8F3EB6B180E0A
:1014F000EA6F00013BEC02F001C0D0F3010E0301E2
:101500000124016E000E0220036E0150200FE96ECF
:10151000000E0320EA6EECCF03F0ED52EF50FF0A0D
:10152000DD0FD06F050E0354D16FDC0ED025016E98
:10153000050ED121CFC3EAFFCEC3E9FFEC6EED5219
:1015400001C0EFFFE96BCDC3E8F3EB6B180EEA6F58
:1015500000013BEC02F002C0CFF301C0CEF3200E3D
:1015600003010124E96E000E0220EA6EEF50040828
:10157000D8A4A2D0E96BCDC3E8F3EB6B180EEA6FE9
:1015800000013BEC02F001C0CEF3030E0301012485
:10159000016E000E0220036E0150200F016E000E3E
:1015A000032201C0CEF303C0CFF3E96BCDC3E8F350
:1015B000EB6B180EEA6F00013BEC02F002C0D1F3B6
:1015C00001C0D0F3140E03010124016E000E0220AD
:1015D000036E0150200FE96E000E0320EA6EE96BE6
:1015E000EFCFE8F3EB6B180EEA6F00013BEC02F073
:1015F00001C0D0F3010E03010124016E000E022090
:10160000036E0150200FE96E000E0320EA6EECCF4E
:1016100003F0ED52EFCFD0F3CFC3EAFFCEC3E9FF23
:1016200003C0ECFFED52D0C3EFFFCDC3CEF30001FA
:10163000F0EC05F00301E96BCDC3E8F3EB6B180E9A
:10164000EA6F00013BEC02F001C0CEF3160E03017D
:101650000124016E000E0220036E0150200F016E66
:10166000000E032201C0CEF303C0CFF3E96BCDC35C
:10167000E8F3EB6B180EEA6F00013BEC02F001C0DF
:10168000D0F3010E03010124016E000E0220036E4F
:101690000150200FE96E000E0320EA6EECCF03F03C
:1016A000ED52EFCFD0F3CFC3EAFFCEC3E9FF03C0C3
:1016B000ECFFED52D0C3EFFFCD2B4AD5E96BCDC384
:1016C000E8F3EB6B180EEA6F00013BEC02F001C08F
:1016D000CEF3160E03010124016E000E0220036EEC
:1016E0000150200F016E000E032201C0CEF303C093
:1016F000CFF3E96BCDC3E8F3EB6B180EEA6F000193
:101700003BEC02F001C0D0F3160E03010124016E80
:10171000000E0220036E0150200FE96E000E032020
:10172000EA6EECCFD1F3ED52EFCFD0F3E96BCDC33E
:10173000E8F3EB6B180EEA6F00013BEC02F001C01E
:10174000D2F3080E03010124016E000E0220036E85
:101750000150200FE96E000E0320EA6EECCF03F07B
:10176000ED52EF50D025016ED1510322CFC3EAFFD5
:10177000CEC3E9FF03C0ECFFED5201C0EFFF000153
:101780002AEF1EF00301CD6BCD510F080BE3036A66
:10179000CD51A00FE96E010E0320EA6ECDC3EFFF1D
:1017A000CD2BF2D7010ECF6FCF2D88D0CF6BCD6B65
:1017B000CD510E08D8A081D0036ACD51A00FE96E9B
:1017C000010E0320EA6EE96BEFCFE8F3EB6B180E26
:1017D000EA6F00013BEC02F001C0D0F3160E0301EA
:1017E0000124016E000E0220036E0150200FE96EED
:1017F000000E0320EA6EECCFD1F3ED52EFCFD0F321
:10180000010ECD25036AA00FE96E010E0320EA6EDA
:10181000E96BEFCFE8F3EB6B180EEA6F00013BECDE
:1018200002F002C0D3F301C0D2F3160E030101246B
:10183000016E000E0220036E0150200FE96E000EB3
:101840000320EA6EECCF03F0ED52EFCF01F003502E
:10185000D15D31E303E1D051015C2DE2036ACD514A
:10186000A00FE96E010E0320EA6EEFCFCEF3036AFC
:10187000CD51A00F016E010E032203C0D1F3010E62
:10188000CD25036AA00FE96E010E0320EA6EEFCFAB
:10189000D2F3D1C3EAFF01C0E9FFD2C3EFFF010ECB
:1018A000CD25036AA00FE96E010E0320EA6ECEC3B8
:1018B000EFFF010ECF6FCD2B7BD776D700012CEF3A
:1018C0001EF00301D351070B006ED331016E0132BC
:1018D00001321F0E01160150D525E96E000ED621EA
:1018E000EA6E016A012A002A01D00136002EFDD7D6
:1018F000D45303E00150EF1203D0011E0150EF1644
:101900000001000CD76AD66ACDC3CFF30301CF51D3
:10191000CE5D2CE3036ACF51A00FE96E010E0320C8
:10192000EA6EEFCFD0F3D890D035036A000157ECC0
:1019300000F00900F5CF03F00301D16F03C0D2F32B
:10194000D36F010ED46F0F0ED66F890ED56F0001C5
:10195000B8DFD1C3D3F30301D46B0F0ED66F920E51
:10196000D56F0001AEDF0301CF2BD1D7CDC3CFF3AD
:10197000CF51CE5D57E3036ACF51A00FE96E010E40
:101980000320EA6EEFCFD0F3D650D7CF03F0D16F5C
:10199000D7CFD2F3E96BD0C3E8F3EB6B180EEA6F45
:1019A00000013BEC02F002C0D4F301C0D3F3160EE9
:1019B00003010124016E000E0220036E0150200F6E
:1019C000E96E000E0320EA6EECCF03F0ED52EFCF8C
:1019D00001F0D251035C04E3D7E10150D15DD4E3BF
:1019E000D890D035036A000157EC00F00900F5CF1C
:1019F00003F00301D16F03C0D2F3D36FD46B0F0E8A
:101A0000D66F890ED56F00015CDFD1C3D3F303011C
:101A1000D46B0F0ED66F920ED56F000152DF03010B
:101A2000CF2BA6D70001000C0301CD6B030ECE6FA8
:101A3000000168DF040E0301CD6F070ECE6F0001B9
:101A400061DF080E0301CD6F0B0ECE6F00015ADF70
:101A50000C0E0301CD6F0F0ECE6F000153DF100E81
:101A60000301CD6F130ECE6F00014CDF140E030186
:101A7000CD6F170ECE6F000145DF180E0301CD6F3D
:101A80001B0ECE6F00013EDF1C0E0301CD6F1F0E3B
:101A9000CE6F000137DF3DEF1EF00301CD91B6534D
:101AA00001E0CD81000ECDB1010E016E000180EF8D
:101AB0001CF00301D9910201B45302E00301D98162
:101AC000000E0301D9B1010E016E000169EF0DF0A6
:101AD000F0D70152FDE0B5C1D7F30301D7510D088E
:101AE000D8B4B607D86B0201B4510301D85D1AE22D
:101AF000036AD851B50F016E010E032203C0DAF359
:101B0000010ED825036AB50FE96E010E0320EA6EB7
:101B1000EFCFDBF3DAC3EAFF01C0E9FFDBC3EFFF7E
:101B2000D82BE1D70201B4070301D7C301F00001AC
:101B3000A4EF0DF00301D691B46B0201B56B030164
:101B4000D6B122D00001C4D701C0D5F30301D551CD
:101B50000D0801E1D681D551190815E2B43D01D037
:101B600012D0036AB451B50FE96E020E0320EA6E7B
:101B7000D5C3EFFFB42B036AB451B50FE96E020E63
:101B80000320EA6EEF6ADCD70001DBEF1BF00301F4
:101B9000D66B036ACB51B50FE96E020E0320EA6ED5
:101BA000EFCFD5F3D551200820E0D5531EE0036ACE
:101BB000D651B70FE96E030E0320EA6ED5C3EFFFCF
:101BC000010ED625036AB70FE96E030E0320EA6EF5
:101BD000EF6AD62BCB2B036ACB51B50FE96E020E01
:101BE0000320EA6EEFCFD5F3DDD7CB2BD55302E13F
:101BF000010ECC6F0001000C0301E6C3E9FFE7C34F
:101C0000EAFFEFCFEAF3E9C303F0E8C3E9FFE9C372
:101C1000EAFFEF50EA5D15E1E7C303F0E6C3E9FF31
:101C200003C0EAFFEF5203E1000E016E1FD0E7C3CD
:101C300003F0E651E62BD8B4E72BE82BD8B4E92B18
:101C4000DCD7E7C303F0E6C3E9FFE7C3EAFFEFCF62
:101C5000EAF3E9C303F0E8C3E9FFE9C3EAFFEF50A1
:101C6000EA5D02E2FF0E01D0010E016E0001000CE0
:101C7000EF5210E0EACFD6F3E9CFD5F3EF509EA8AC
:101C8000FED7AD6ED6C3EAFFD5C3E9FFE92AD8B4C3
:101C9000EA2AEED7000C006A016A0301DC51D890F1
:101CA000DDB1002600320132DDB300260032013200
:101CB000DDB5002600320132DDB7002600320132E8
:101CC000DDB9002600320132DDBB002600320132D0
:101CD000DDBD002600320132DDBF002600320132B8
:101CE0000001E1EF0EF00301DA6BD86B0A0ED96F39
:101CF000D76BD551D61103E1000E016EC3D0DA5176
:101D0000DA2B036AD525E96ED6510320EA6EEFCFB0
:101D1000DBF3DB512D080DE1010ED86FDA51DA2B20
:101D2000036AD525E96ED6510320EA6EEFCFDBF3C7
:101D30000DD0DB512B080AE1DA51DA2B036AD525E5
:101D4000E96ED6510320EA6EEFCFDBF3DB512F08AB
:101D5000D8B090D0DB513908D8A08CD0DB513008F6
:101D600021E1036ADA51D525E96ED6510320EA6EE6
:101D7000EF5078080AE0036ADA51D525E96ED651AA
:101D80000320EA6EEF5058080DE1100ED96FDA2BE0
:101D9000DA51DA2B036AD525E96ED6510320EA6EB3
:101DA000EFCFDBF3D9510A081DE1DB512F0819E20F
:101DB000DB51390816E30A0EDC6FD7C3DDF30001EF
:101DC0006AD7300E0301DB5D0124D76FDA51DA2BBD
:101DD000036AD525E96ED6510320EA6EEFCFDBF317
:101DE000E4D748D0D951100845E1DB51600806E23C
:101DF000DB517A0803E3DB51DF0B01D0DB51DB6FF2
:101E0000DB512F0803E2DB51390806E2DB514008C1
:101E100031E2DB5146082EE3DB512F080CE2DB51A7
:101E2000390809E3D739DC6FF00EDC17300EDB5DC3
:101E3000DC25D76F09D0D739DC6FF00EDC17410EE7
:101E4000DB5D0A0FDC25D76FDA51DA2B036AD52563
:101E5000E96ED6510320EA6EEFCFDBF3DB51600869
:101E600006E2DB517A0803E3DB51DF0B01D0DB51E3
:101E7000DB6FC6D7D82D04D0D9510A0801E1D76D40
:101E8000D7C301F0000133EF1CF00900F5520DE05B
:101E9000F6CFD5F3F7CFD6F3F5509EA8FED7AD6EAB
:101EA000D5C3F6FFD6C3F7FFF0D73EEF1CF0030112
:101EB000D851016AD75D03E2D7C300F00CD0006AA5
:101EC000080ED96FD7370036D851005CD8B0006EF5
:101ED0000136D92FF7D70001000C0150D5C3D7F335
:101EE000640E0301D86F0001E2DF00C0D5F301509A
:101EF000300E08E10301D6A30ED0D6B70CD0D6B968
:101F0000200E04D00301D697D699D6810126015020
:101F10009EA8FED7AD6ED5C3D7F30A0ED86F0001C9
:101F2000C6DF00C0D5F30150300E08E10301D6B77B
:101F30000BD0D6A109D0D6B9200E00010126015040
:101F40009EA8FED7AD6E0301300ED527D5519EA8B1
:101F5000FED7AD6E00014EEF1CF0010E0301E56FE0
:101F6000036AE551B70FE96E030E0320EA6EEFCF67
:101F7000E4F3E45315E0010EE55D036AB70FE96E83
:101F8000030E0320EA6EE4C3EFFFE52B036AE5517D
:101F9000B70FE96E030E0320EA6EEFCFE4F3E9D743
:101FA000010EE55D036AB70FE96E030E0320EA6ECA
:101FB000EF6A000177EF16F00301ED51EF19800B86
:101FC000F16FEDAF05D0EC1FED1FEC2BD8B4ED2B6E
:101FD000EFAF05D0EE1FEF1FEE2BD8B4EF2BEC5177
:101FE000EE03F3CF01F0F4CF00F0EF03F35000263F
:101FF000ED51EE03F3500020026EF1AF05D0011E4B
:10200000021E012AD8B4022A00017AEF10F003015F
:10201000EA6BE86B0A0EE96FE76BE66BE451E511DA
:1020200004E1000E016E026EE8D0EA51EA2B036A69
:10203000E425E96EE5510320EA6EEFCFEBF3EB51B7
:102040002D080DE1010EE86FEA51EA2B036AE42541
:10205000E96EE5510320EA6EEFCFEBF30DD0EB51C3
:102060002B080AE1EA51EA2B036AE425E96EE551FF
:102070000320EA6EEFCFEBF3EB512F08D8B0AFD0CF
:10208000EB513908D8A0ABD0EB51300821E1036AFD
:10209000EA51E425E96EE5510320EA6EEF50780835
:1020A0000AE0036AEA51E425E96EE5510320EA6E8D
:1020B000EF5058080DE1100EE96FEA2BEA51EA2BB8
:1020C000036AE425E96EE5510320EA6EEFCFEBF3F6
:1020D000E9510A0823E1EB512F081FE2EB513908BF
:1020E0001CE3ED6B0A0EEC6FE7C3EFF3E6C3EEF310
:1020F000000162D7300E0301EB5D0124E66F000E94
:102100000220E76FEA51EA2B036AE425E96EE55104
:102110000320EA6EEFCFEBF3DED761D0E951100870
:102120005EE1EB51600806E2EB517A0803E3EB5104
:10213000DF0B01D0EB51EB6FEB512F0803E2EB51BA
:10214000390806E2EB5140084AE2EB51460847E302
:10215000EB512F0819E2EB51390816E3E635EC6F25
:10216000E735ED6FEC37ED37EC37ED37EC37ED3722
:10217000F00EEC17300EEB5DEC25016E000EED213C
:1021800001C0E6F3E76F16D0E635EC6FE735ED6F8B
:10219000EC37ED37EC37ED37EC37ED37F00EEC1769
:1021A000410EEB5D0A0FEC25016E000EED2101C022
:1021B000E6F3E76FEA51EA2B036AE425E96EE5519D
:1021C0000320EA6EEF50EB6F600806E2EB517A08ED
:1021D00003E3EB51DF0B01D0EB51EB6FADD7E951CE
:1021E0000A0807E1E82D05D0E61FE71FE62BD8B463
:1021F000E72BE6C301F0E7C302F000017FEF16F022
:102200008E0E006EE7C301F0E6C302F0036A01AE72
:1022100005D0011E021E022A01E1012A015209E134
:1022200002C001F0026A080E005E015202E1006A7B
:102230000DD0D89001BE04D0023601360006F9D781
:102240000301E7AF02D0000101D0019E000145EF7C
:1022500017F00301E651D8B4A5D0F26FEA51D8B413
:10226000A1D0F25F05E37F0EF227D8B09BD006D055
:10227000810EF25FD8A096D0D8B494D0F2C300F00B
:10228000016A026A036AF16BE7C3F0F3F08FE8C3F7
:10229000EFF3E9C3EEF3190EF26FED51EE5F0DE2CD
:1022A000010EEF5F0AE2F05F08E2F15F06E2F12B58
:1022B000F02BEF2BED51EE2728D0EC51EF5F12E21F
:1022C000010EF05F0FE2F15F0DE2F12BF02BEC510C
:1022D000EF27ED51EE2719E3EF2B17E1F02B15E176
:1022E000F12B13D0EB518009F05F0EE2010EF15F8C
:1022F0000BE2F12BEB518009F027EC51EF27E9E3DA
:10230000F02BE7E1F12BE5D70380F22F01D00BD0C2
:10231000D890EE37EF37F037F137D89003360236E2
:102320000136F337BAD7F3A106D0D8900132023282
:102330000332F33302D0000635E0F3BF1ED0D8904D
:10234000EE37EF37F037F137ED51EE5F07E2010E70
:10235000EF5F04E2F05F02E2F15F1AE3EC51EF5F3E
:1023600005E2010EF05F02E2F15F12E3EB5180093A
:10237000F05F03E2010EF15F0BE3032A09E1022A99
:1023800007E1012A05E1002A0DE0013202320332A1
:10239000E7C3F2F3EB51F21BF2AF02D0018E06D08D
:1023A000019E04D0006A016A026A036A000159EFC3
:1023B00017F0800ED8A202D00401271B04012C6B59
:1023C0002D6B23C42BF427512B1B2251D8B4DFD003
:1023D0002A6F006E2651D8B4E3D02A5FD8B483D0D8
:1023E0003EE327C430F4308F28C42FF429C42EF4E0
:1023F0002D6BD89030332F332E332D332A2FF8D72F
:102400002BAF03D02C81E0D02C912A912C89040E83
:10241000EA6E250EE96EEBD02C992BBF0AD02AA1CB
:1024200013D030332F332E332D33002AD8B4C7D0F6
:102430000BD030BF0CD0D8902D372E372F373037F8
:102440000006D8B4BCD0F5D72C8D6DD02C9D23C4FC
:102450002BF423AF02D0308FABD0309FA9D026C44D
:102460002AF426C400F022512A5F23C430F4308FAE
:1024700024C42FF425C42EF42D6BD89030332F3381
:102480002E332D332A2FF8D72BAF03D02C839CD09B
:102490002C932A912C8B040EEA6E290EE96EA7D09C
:1024A0002C9B2BBF0AD02AA113D030332F332E33CD
:1024B0002D33002AD8B483D00BD030BF0CD0D890A5
:1024C0002D372E372F3730370006D8B478D0F5D7D0
:1024D0002C8F29D02C9F27C42BF427AF02D0308F0C
:1024E00067D0309F65D027C430F4308F28C42FF4D4
:1024F00029C42EF42BAF04D0309F2C8565D02C95A9
:102500002D6B2A91040EEA6E250EE96E70D02BBF5A
:102510001CD023C42BF42AA106D030332F332E3302
:102520002D33002A4CE02DAF0BD02E2B09E12F2BA1
:1025300007E1302B05E130332F332E33002A3FE003
:102540002CBD84D72CBFC6D71CD0800E301B30AF1B
:1025500004D03AD027C42BF40AD023C42BF4305330
:1025600006E12F5304E12E5302E1006A21D030BF6F
:1025700008D0D8902D372E372F373037002EF7D789
:102580001ED02BAF02D0308F13D0309F11D026C475
:1025900000F027C430F428C42FF429C42EF408D046
:1025A00022C400F023C430F424C42FF425C42EF434
:1025B00030C401F02FC402F02EC403F034D0006AFE
:1025C000016A026A036A2FD02D6B2E1F2F1F301F46
:1025D0002D1F2D2B05E12E2B03E12F2B01E1302B9D
:1025E0002CB112D72CB354D72CB589D7B3D7EF5011
:1025F0002E2705E32F2B03E1302BD8B42A81ED528F
:10260000EF502F2703E3302BD8B42A81ED52EF503F
:10261000EFBE01D0800A3027D8B02A812CB9FCD671
:102620002CBB3ED774D70001000C1FC426F4040154
:102630002351261B26AF05D0D894D8901FBFD88031
:102640002FD01FC426F422C427F41E51275F06E0B2
:1026500026AF26D0D850010AD86E22D023C427F442
:102660001F51275F06E026AF1BD0D850010AD86E55
:1026700017D024C427F42051275F06E026AF10D0DE
:10268000D850010AD86E0CD025C427F42151275FF9
:1026900006E026AF05D0D850010AD86E01D0D890F8
:1026A00000014AEF14F004012251D8B471D0006E39
:1026B0002651D8B46DD0002604E3810E002668E2CE
:1026C00004D07F0E005E64E363E023C42AF4275144
:1026D0002A1B238F278F25512903F4CF2CF4245153
:1026E0002803F4CF03F0F3CF2BF42903F3502C2766
:1026F000F4502B23000E032225512803F3502C27DE
:10270000F4502B23000E026A0322022223512903D4
:10271000F3502B27F4500322000E022223512803EA
:10272000F3500326F4500222000E016A01222551C3
:102730002703F3502B27F4500322000E022201221C
:1027400024512703F3500326F4500222000E0122E5
:1027500023512703F3500226F4500122002A01BE20
:1027600005D02B370336023601360006000E2BAF9C
:102770000AD0032A02220122015005E1025003E19E
:10278000035001E1002A2ABF018E2AAF019E04D026
:10279000006A016A026A036A0001000C8E0E006E74
:1027A00004011E51005E1FC402F020C401F0028E1D
:1027B000005209E0D890025202E1015204E00232D4
:1027C0000132002EF7D71FAF05D0011E021E012ACD
:1027D000D8B4022A0001000C8E0E006E23C401F052
:1027E00022C402F0036A015209E102C001F0026A48
:1027F000080E005E015202E1006A08D0D89001BEC6
:1028000004D0023601360006F9D7019E000C030100
:10281000FF6BFE6BFD6B7F0EFC6F7E0E0401066F7F
:10282000800E076F086B096B7A0E0A6F2A0E0B6F0A
:10283000AA0E0C6FAB0E0D6F750E0E6FB60E0F6FEE
:102840000B0E106F610E116F6F0E126F500E136F23
:102850000D0E146F010E156F690E166F930E176F24
:10286000F20E186F7E0E196F620E1A6F0F0E1B6F2D
:10287000760E1C6FAE0E1D6FF3C321F4F2C320F46D
:10288000F1C31FF4F0C31EF4256B246B236B226B82
:102890000001CBD604E30301F151800AF16FF3C3C9
:1028A00025F4F2C324F4F1C323F4F0C322F4830E1D
:1028B0000401296FF90E286F220E276F7E0E266FF6
:1028C0000001F1DE03C021F402C020F401C01FF4B6
:1028D00000C01EF463DF01C000F4F3C325F4F2C3AB
:1028E00024F4F1C323F4F0C322F4830E0401296F0E
:1028F000F90E286F220E276F7E0E266F0001D3DEA1
:1029000000C01EF401C01FF402C020F403C021F473
:102910000401236B00C422F400015EDFD88221C4CD
:1029200025F420C424F41FC423F41EC422F403C0DD
:1029300029F402C028F401C027F400C026F439DDD0
:1029400003C005F402C004F401C003F400C002F4A3
:10295000030E04010017005303E0005102081CE1BC
:1029600005C425F404C424F403C423F402C422F4EB
:10297000DB0E296F0F0E286F490E276F7F0E266F13
:10298000000191DE03C0FBF302C0FAF301C0F9F3CA
:1029900000C0F8F36BD00401002D35D0D882256B30
:1029A000246B236B7F0E226F05C429F404C428F422
:1029B00003C427F402C426F40001FBDC00C01EF4AB
:1029C00001C01FF402C020F403C021F403C025F4A9
:1029D00002C024F401C023F400C022F4DB0E040181
:1029E000296F0F0E286F490E276F7F0E266F00018B
:1029F0005ADE03C0FBF302C0FAF301C0F9F300C0D2
:102A0000F8F334D00401D88205C425F404C424F4B6
:102A100003C423F402C422F4296B286B276B7F0EB6
:102A2000266F0001C6DC00C01EF401C01FF402C006
:102A300020F403C021F403C025F402C024F401C033
:102A400023F400C022F4DB0E0401296F0F0E286F5F
:102A5000490E276F7F0E266F000125DE03C0FBF3B2
:102A600002C0FAF301C0F9F300C0F8F30301F76BF9
:102A7000F66BF56B7F0EF46FFBC325F4FAC324F4F9
:102A8000F9C323F4F8C322F4FBC329F4FAC328F4EE
:102A9000F9C327F4F8C326F4000105DE03C0FBF3F5
:102AA00002C0FAF301C0F9F300C0F8F30401016BAE
:102AB0000151050863E3FFC325F4FEC324F4FDC3FD
:102AC00023F4FCC322F4FBC329F4FAC328F4F9C3AA
:102AD00027F4F8C326F40001E6DD03C0FFF302C0CB
:102AE000FEF301C0FDF300C0FCF304010151040D2D
:102AF000F350036A060FE96E040E0320EA6EEFCF6F
:102B00001EF4ECCF1FF4ECCF20F4ECCF21F421C461
:102B100025F420C424F41FC423F41EC422F4FFC3EC
:102B200029F4FEC328F4FDC327F4FCC326F40001F6
:102B3000BADDEACF1FF4E9CF1EF4D892F7C325F42B
:102B4000F6C324F4F5C323F4F4C322F403C029F438
:102B500002C028F401C027F400C026F42ADC1FC4F8
:102B6000EAFF1EC4E9FF03C0F7F302C0F6F301C099
:102B7000F5F300C0F4F30401012B9AD700510208C9
:102B800002E0002D05D00301F551800AF56F040124
:102B9000F4C300F0F5C301F0F6C302F0F7C303F08D
:102BA0000001F9EF15F0D882EBC325F4EAC324F451
:102BB000E9C323F4E8C322F4DB0E0401296F0F0EEE
:102BC000286F490E276F7F0E266F0001D9EC11F098
:102BD00000C0ECF301C0EDF302C0EEF303C0EFF36D
:102BE00003C0F3F302C0F2F301C0F1F300C0F0F34D
:102BF0000ED66AEF17F00301F96BF86BF551F75D2C
:102C00000AE303E1F651F45D06E2F451F65DF86F74
:102C1000F551F759F96FF751F55D0AE303E1F45106
:102C2000F65D06E2F651F45DF86FF751F559F96F6C
:102C3000F8C301F0F9C302F000015AEF16F0016A7F
:102C4000026A006A036A0301F95102E1F85118E0CF
:102C5000100EFA6FD890F637F73700360336F95171
:102C6000035C02E1F851005C07E3F851005ED8A074
:102C70000306F951035ED88001360236FA2FEAD7EF
:102C8000000167EF16F00301EF31F16FEE31F06FE5
:102C9000F133F033F133F033F133F0330F0EF1173A
:102CA000EBC3F5F3EAC3F4F3EDC3F7F3ECC3F6F3C8
:102CB0000001A1D702C0F5F301C0F4F302C0F7F39D
:102CC00001C0F6F3F1C3F9F3F0C3F8F3B8D702C0CB
:102CD000F3F301C0F2F30301F2C301F0F3C302F016
:102CE000000170EF18F0B7C3D6F3ADEF0FF0030E8D
:102CF0000301E56FB70EE46F000107EF10F002C0AB
:102D0000D8F301C0D7F30301D651230A000127E00D
:102D1000770A31E0040A35E0190AD8B4ECD1640A24
:102D2000D8B411D2060AD8B44CD2780AD8B487D213
:102D3000100AD8B4A4D2050AD8B4D5D20B0AD8B494
:102D400006D3020AD8B437D3070AD8B46ED31A0A06
:102D5000D8B4A5D3730AD8B4E6D3D7EF1BF0010ECD
:102D60000301D75D006E000ED85900C0B0F101011B
:102D70000001D7EF1BF0D8C3B2F1D7C3B1F1D7EF41
:102D80001BF00301E96BB0C1E8F3EB6B180EEA6FBF
:102D900000013BEC02F0200E03010124E96E000E5D
:102DA0000220EA6E010EEF6E0101B42D0DD1030178
:102DB000E96BB0C1E8F3EB6B180EEA6F00013BEC76
:102DC00002F001C0E4F30E0E03010124016E000EB7
:102DD0000220036E0150200FE96E000E0320EA6E00
:102DE000ECCFE5F3ED52EFCFE4F3E96BB0C1E8F3DC
:102DF000EB6B180EEA6F00013BEC02F002C0E7F348
:102E000001C0E6F30C0E03010124016E000E022046
:102E1000036E0150200FE96E000E0320EA6EECCF26
:102E200003F0ED52EF50E45F0350E55BD890E533DB
:102E3000E433E96BB0C1E8F3EB6B180EEA6F000105
:102E40003BEC02F001C0E6F30C0E03010124016E1D
:102E5000000E0220036E0150200FE96E000E0320C9
:102E6000EA6EECCF03F0ED52EF50E425DD6F035036
:102E7000E521DE6FD8C3E5F3D7C3E4F3D8C3E7F3A6
:102E8000D7C3E6F3000100EF11F003C0E9F302C07D
:102E9000E8F301C0E7F300C0E6F3E10E0301ED6FD4
:102EA0002E0EEC6F650EEB6F840EEA6F000129EFBA
:102EB00011F000C0E4F301C0E5F302C0E6F303C083
:102EC000E7F303C0EBF302C0EAF301C0E9F300C08B
:102ED000E8F369D603C0DCF302C0DBF301C0DAF328
:102EE00000C0D9F30301E96BB0C1E8F3EB6B180E36
:102EF000EA6F00013BEC02F001C0E4F30E0E0301A7
:102F00000124016E000E0220036E0150200FE96EB5
:102F1000000E0320EA6EECCFE5F3ED52EFCFE4F3C1
:102F2000DD51E45D006EDE51E559036E00C022F410
:102F30000401236F000150DCDCC325F4DBC324F45F
:102F4000DAC323F4D9C322F403C029F402C028F45D
:102F500001C027F400C026F453EC13F000C0E4F3E2
:102F600001C0E5F302C0E6F303C0E7F3DEC323F4D8
:102F7000DDC322F431DCEACFE9F3E9CFE8F3D892FC
:102F8000E7C325F4E6C324F4E5C323F4E4C322F441
:102F900003C029F402C028F401C027F400C026F4BD
:102FA000D9EC11F0E9C3EAFFE8C3E9FF03C021F45B
:102FB00002C020F401C01FF400C01EF4CEEC13F0D8
:102FC00002C0D8F301C0D7F30301E96BB0C1E8F345
:102FD000EB6B180EEA6F00013BEC02F001C0E4F36A
:102FE000030E03010124016E000E0220036E015046
:102FF000200FE96E000E0320EA6ED8C3ECFFED52FD
:10300000D7C3EFFFB0C1E4F30001EDEC04F0010120
:10301000B15302E1B2536DE00301E96BB0C1E8F3D3
:10302000EB6B180EEA6F00013BEC02F001C0E4F319
:10303000050E03010124016E000E0220036E0150F3
:10304000200F016E000E032201C0E4F303C0E5F37C
:10305000E96BB0C1E8F3EB6B180EEA6F00013BECD3
:1030600002F001C0E6F3010E03010124016E000E1F
:103070000220036E0150200FE96E000E0320EA6E5D
:10308000ECCFE7F3ED52EFCFE6F3E96BB0C1E8F335
:10309000EB6B180EEA6F00013BEC02F001C0E8F3A5
:1030A000030E03010124016E000E0220036E015085
:1030B000200FE96E000E0320EA6EECCFE9F3ED522B
:1030C000EFCFE8F3E7C3EBF3E6C3EAF3E9C3EDF3CD
:1030D000E8C3ECF3B2C1EFF3B1C1EEF30001D3D515
:1030E000E5C3EAFFE4C3E9FF02C0ECFFED5201C013
:1030F000EFFF00015CD30301E96BB0C1E8F3EB6BB8
:10310000180EEA6F00013BEC02F001C0E4F3030E7D
:1031100003010124016E000E0220036E0150200FF6
:10312000E96E000E0320EA6ED751EF24016ED851EC
:10313000EC20ED5201C0EFFFEC6EB0C1E4F30001F2
:10314000EDEC04F034D30301E96BB0C1E8F3EB6BB1
:10315000180EEA6F00013BEC02F001C0E4F30C0E24
:1031600003010124016E000E0220036E0150200FA6
:10317000E96E000E0320EA6ED8C3ECFFED52D7C310
:10318000EFFFE96BB0C1E8F3EB6B180EEA6F0001DB
:103190003BEC02F001C0E4F3120E03010124016EC6
:1031A000000E0220036E0150200FE96E000E032076
:1031B000EA6E010EEF6EB0C1E4F30001EDEC04F035
:1031C000F6D20301E96BB0C1E8F3EB6B180EEA6FBE
:1031D00000013BEC02F001C0E4F30E0E03010124F8
:1031E000016E000E0220036E0150200FE96E000EEA
:1031F0000320EA6ED8C3ECFFED52D7C3EFFFE96BB3
:10320000B0C1E8F3EB6B180EEA6F00013BEC02F083
:1032100001C0E4F3130E03010124016E000E02202D
:10322000036E0150200FE96E000E0320EA6E010EBE
:10323000EF6EB0C1E4F30001EDEC04F0B8D203018D
:10324000E96BB0C1E8F3EB6B180EEA6F00013BECE1
:1032500002F001C0E4F3050E03010124016E000E2B
:103260000220036E0150200FE96E000E0320EA6E6B
:10327000D8C3ECFFED52D7C3EFFF000198D2030192
:10328000E96BB0C1E8F3EB6B180EEA6F00013BECA1
:1032900002F0200E03010124E96E000E0220EA6E06
:1032A000020EEF6EE96BB0C1E8F3EB6B180EEA6F3C
:1032B00000013BEC02F001C0E4F3140E0301012411
:1032C000016E000E0220036E0150200FE96E000E09
:1032D0000320EA6E010ED75D006E000ED85900C0C3
:1032E000EFFF000164D20301E96BB0C1E8F3EB6BBF
:1032F000180EEA6F00013BEC02F0200E03010124DE
:10330000E96E000E0220EA6E040EEF6EE96BB0C1AA
:10331000E8F3EB6B180EEA6F00013BEC02F001C022
:10332000E4F3140E03010124016E000E0220036E6B
:103330000150200FE96E000E0320EA6E010ED75DEA
:10334000006E000ED85900C0EFFF000130D203011B
:10335000E96BB0C1E8F3EB6B180EEA6F00013BECD0
:1033600002F0200E03010124E96E000E0220EA6E35
:10337000030EEF6EE96BB0C1E8F3EB6B180EEA6F6A
:1033800000013BEC02F001C0E4F3140E0301012440
:10339000016E000E0220036E0150200FE96E000E38
:1033A0000320EA6E010ED75D006E000ED85900C0F2
:1033B000EFFF0001FCD10301E96BB0C1E8F3EB6B57
:1033C000180EEA6F00013BEC02F001C0E4F3080EB6
:1033D00003010124016E000E0220036E0150200F34
:1033E000E96E000E0320EA6ED8C3ECFFED52D7C39E
:1033F000EFFFE96BB0C1E8F3EB6B180EEA6F000169
:103400003BEC02F001C0E4F3100E03010124016E55
:10341000000E0220036E0150200FE96E000E032003
:10342000EA6E010EEF6E0001C2D10301E96BB0C17B
:10343000E8F3EB6B180EEA6F00013BEC02F001C001
:10344000E4F30A0E03010124016E000E0220036E54
:103450000150200FE96E000E0320EA6ED8C3ECFF86
:10346000ED52D7C3EFFFE96BB0C1E8F3EB6B180E79
:10347000EA6F00013BEC02F001C0E4F3110E03011E
:103480000124016E000E0220036E0150200FE96E30
:10349000000E0320EA6E010EEF6E000188D10301D9
:1034A000E96BB0C1E8F3EB6B180EEA6F00013BEC7F
:1034B00002F001C0E4F3030E03010124016E000ECB
:1034C0000220036E0150200F016E000E032201C086
:1034D000E4F303C0E5F3E96BB0C1E8F3EB6B180E5E
:1034E000EA6F00013BEC02F001C0E6F30A0E0301B3
:1034F0000124016E000E0220036E0150200FE96EC0
:10350000000E0320EA6EECCF03F0ED52EFCFE6F3AE
:10351000E5C3EAFFE4C3E9FF03C0ECFFED52E6C3F5
:10352000EFFF000144D1440E0301DF6F4F0EE06F47
:103530004E0EE16FE26B030EE76FB70EE66F030E00
:10354000E96FDF0EE86F0001FCEC0DF001521BE1AA
:103550000301E96BB0C1E8F3EB6B180EEA6F0001F1
:103560003BEC02F001C0E4F3070E03010124016EFD
:10357000000E0220036E0150200FE96E000E0320A2
:10358000EA6E010EEF6E4F0E0301DF6F4E0EE06F1D
:10359000E16B030EE76FB70EE66F030EE96FDF0E08
:1035A000E86F0001FCEC0DF0015202E10101B36B88
:1035B0004F0E0301DF6F460EE06FE16FE26B030E0B
:1035C000E76FB70EE66F030EE96FDF0EE86F0001DD
:1035D000FCEC0DF001521BE1010E0101B36F030180
:1035E000D56BD5510F0813E3E96BB0C1E8F3EB6B72
:1035F000180EEA6F00013BEC02F0200E03010124DB
:10360000E96E000E0220EA6EEF6AD52BEAD7480E6B
:103610000301DF6F4F0EE06F4D0EE16F450EE26F5D
:10362000E36B030EE76FB70EE66F030EE96FDF0E75
:10363000E86F0001FCEC0DF00152D8A49ED001010E
:10364000B36B0301D56BD5510F08D8A096D0E96BA9
:10365000B0C1E8F3EB6B180EEA6F00013BEC02F02F
:10366000200E03010124E96E000E0220EA6E010E15
:10367000EF6EE96BB0C1E8F3EB6B180EEA6F000177
:103680003BEC02F001C0E4F3010E03010124016EE2
:10369000000E0220036E0150200F016E000E032267
:1036A00001C0E4F303C0E5F3E96BB0C1E8F3EB6BF1
:1036B000180EEA6F00013BEC02F001C0E6F30A0EBF
:1036C00003010124016E000E0220036E0150200F41
:1036D000E96E000E0320EA6EECCF03F0ED52EFCF5F
:1036E000E6F3E5C3EAFFE4C3E9FF03C0ECFFED52F4
:1036F000E6C3EFFFE96BB0C1E8F3EB6B180EEA6FBE
:1037000000013BEC02F001C0E4F3030E03010124CD
:10371000016E000E0220036E0150200F016E000E9C
:10372000032201C0E4F303C0E5F3E96BB0C1E8F3A1
:10373000EB6B180EEA6F00013BEC02F001C0E6F300
:103740000A0E03010124016E000E0220036E0150D7
:10375000200FE96E000E0320EA6EECCF03F0ED526D
:10376000EFCFE6F3E5C3EAFFE4C3E9FF03C0ECFFF4
:10377000ED52E6C3EFFFD52B66D7530E0301DF6F83
:10378000490EE06F4E0EE16FE26B030EE76FB70E6E
:10379000E66F030EE96FDF0EE86F0001FCEC0DF041
:1037A000015204E1010E0101B46F000100D078EF75
:1037B0001CF09AEF0DF00301CB6B0101B46B030118
:1037C000CC6B0001C7EC0DF0030EEA6ECE0EE96E75
:1037D000070E016EF76A000E6FEC00F00A00090098
:1037E000F5CFEEFF012EFBD7030E0301E76FB70EF7
:1037F000E66F030EE96FCE0EE86F0001FCEC0DF0F2
:10380000015212E0020EEA6EB50EE96E38EC0EF0CF
:103810000D0E9EA8FED7AD6E0A0E9EA8FED7AD6E09
:10382000010E0301CC6F0001C7EC0DF0240E030163
:10383000CE6F310ECF6FD06B030EE76FB70EE66F12
:10384000030EE96FCE0EE86F0001FCEC0DF00152A3
:1038500043E0300E0301B76F030ED66FB70ED56F7E
:10386000000173EF0EF0010E015C0301CD6FC00E7D
:10387000F66E010EF76E000145EF0FF0200E9EA8C8
:10388000FED7AD6E240E9EA8FED7AD6ECDC3D5F388
:103890001B0E0301D66F00016DEF0FF0690E9EA89D
:1038A000FED7AD6E0301CC530FE10001C7EC0DF064
:1038B000030EEA6EB70EE96E38EC0EF0200E9EA8ED
:1038C000FED7AD6EEFD703010D0E9EA8FED7AD6EED
:1038D0000A0E9EA8FED7AD6E0101B26BB16BB06B44
:1038E0000301CC5308E10001C7EC0DF073EF16F0B3
:1038F0000101F6D70301000183EF1CF04DEF0DF03D
:10390000012C01D056D73FEF1EF00301CD6BCD51F6
:103910000F08D8A072D1E96BCDC3E8F3EB6B180E9A
:10392000EA6F00013BEC02F002C0CFF301C0CEF31E
:10393000100E03010124016E000E0220036E0150DF
:10394000200FE96E000E0320EA6EEF2C40D0E96BE9
:10395000CDC3E8F3EB6B180EEA6F00013BEC02F00D
:1039600001C0CEF3080E03010124016E000E0220F7
:10397000036E0150200FE96E000E0320EA6EECCFBB
:10398000CFF3ED52EFCFCEF3CDC3D0F3CFC3D2F30D
:10399000CEC3D1F3000125EC01F00301E96BCDC3E7
:1039A000E8F3EB6B180EEA6F00013BEC02F001C08C
:1039B000CEF3100E03010124016E000E0220036EEF
:1039C0000150200FE96E000E0320EA6EEF6AE96BEA
:1039D000CDC3E8F3EB6B180EEA6F00013BEC02F08D
:1039E00002C0CFF301C0CEF3110E03010124016E1A
:1039F000000E0220036E0150200FE96E000E03201E
:103A0000EA6EEF2C40D0E96BCDC3E8F3EB6B180EF8
:103A1000EA6F00013BEC02F001C0CEF30A0E030195
:103A20000124016E000E0220036E0150200FE96E8A
:103A3000000E0320EA6EECCFCFF3ED52EFCFCEF3C2
:103A4000CDC3D0F3CFC3D2F3CEC3D1F30001E4ECA6
:103A500000F00301E96BCDC3E8F3EB6B180EEA6FDE
:103A600000013BEC02F001C0CEF3110E0301012472
:103A7000016E000E0220036E0150200FE96E000E51
:103A80000320EA6EEF6AE96BCDC3E8F3EB6B180E27
:103A9000EA6F00013BEC02F002C0CFF301C0CEF3AD
:103AA000120E03010124016E000E0220036E01506C
:103AB000200FE96E000E0320EA6EEF2C40D0E96B78
:103AC000CDC3E8F3EB6B180EEA6F00013BEC02F09C
:103AD00001C0CEF30C0E03010124016E000E022082
:103AE000036E0150200FE96E000E0320EA6EECCF4A
:103AF000CFF3ED52EFCFCEF3CDC3D0F3CFC3D2F39C
:103B0000CEC3D1F3000166EC01F00301E96BCDC334
:103B1000E8F3EB6B180EEA6F00013BEC02F001C01A
:103B2000CEF3120E03010124016E000E0220036E7B
:103B30000150200FE96E000E0320EA6EEF6AE96B78
:103B4000CDC3E8F3EB6B180EEA6F00013BEC02F01B
:103B500002C0CFF301C0CEF3130E03010124016EA6
:103B6000000E0220036E0150200FE96E000E0320AC
:103B7000EA6EEF2C40D0E96BCDC3E8F3EB6B180E87
:103B8000EA6F00013BEC02F001C0CEF30E0E030120
:103B90000124016E000E0220036E0150200FE96E19
:103BA000000E0320EA6EECCFCFF3ED52EFCFCEF351
:103BB000CDC3D0F3CFC3D2F3CEC3D1F30001A7EC72
:103BC00001F00301E96BCDC3E8F3EB6B180EEA6F6C
:103BD00000013BEC02F001C0CEF3130E03010124FF
:103BE000016E000E0220036E0150200FE96E000EE0
:103BF0000320EA6EEF6ACD2B8AD6000140EF1EF05B
:103C0000F86AD09E078EEA6AE96A700ED36E400E9B
:103C10009B6ED350B886820EAF6E060EB06EA60EA7
:103C2000AC6E900EAB6E939E8A8E000E7E6EC19827
:103C3000C19A7F50E00B7F6E799A79987A6A7B6A95
:103C40001A6A1B6ACAEF02F00101B35316E10001C0
:103C5000A6EF08F0C2EF0BF0CE50CFCF03F0030178
:103C6000CD6FCF50CE6F7C08D8A002D00001F4D722
:103C7000CF6ACE6A000114EF0DF000013FD645D6A1
:043C8000E3D7030083
:020000040030CA
:0E00000000C8190E000D81000FC00FE00F4068
:00000001FF
;PIC18F26K20
;CRC=006E  CREATED="03-Oct-11 21:08"
